{
  "contractName": "RightsRegistry",
  "abi": [
    {
      "constant": false,
      "inputs": [
        {
          "name": "targetEntity",
          "type": "address"
        },
        {
          "name": "holderEntity",
          "type": "address"
        },
        {
          "name": "rightsType",
          "type": "string"
        }
      ],
      "name": "addRight",
      "outputs": [],
      "payable": false,
      "stateMutability": "nonpayable",
      "type": "function"
    },
    {
      "constant": true,
      "inputs": [],
      "name": "getNumRights",
      "outputs": [
        {
          "name": "",
          "type": "uint256"
        }
      ],
      "payable": false,
      "stateMutability": "view",
      "type": "function"
    },
    {
      "constant": true,
      "inputs": [
        {
          "name": "rightIndex",
          "type": "uint256"
        }
      ],
      "name": "getRightAt",
      "outputs": [
        {
          "name": "holderEntity",
          "type": "address"
        },
        {
          "name": "targetEntity",
          "type": "address"
        },
        {
          "name": "rightsType",
          "type": "string"
        },
        {
          "name": "rightsContract",
          "type": "address"
        },
        {
          "name": "infoUrl",
          "type": "string"
        },
        {
          "name": "status",
          "type": "uint256"
        },
        {
          "name": "startTime",
          "type": "uint256"
        },
        {
          "name": "expireTime",
          "type": "uint256"
        }
      ],
      "payable": false,
      "stateMutability": "view",
      "type": "function"
    }
  ],
  "bytecode": "0x6060604052341561000f57600080fd5b610c2e8061001e6000396000f300606060405260043610610057576000357c0100000000000000000000000000000000000000000000000000000000900463ffffffff16806308ebe87b1461005c578063d9ce2a6f14610212578063fe24e4251461023b575b600080fd5b341561006757600080fd5b61007d60048080359060200190919050506102d6565b604051808973ffffffffffffffffffffffffffffffffffffffff1673ffffffffffffffffffffffffffffffffffffffff1681526020018873ffffffffffffffffffffffffffffffffffffffff1673ffffffffffffffffffffffffffffffffffffffff168152602001806020018773ffffffffffffffffffffffffffffffffffffffff1673ffffffffffffffffffffffffffffffffffffffff16815260200180602001868152602001858152602001848152602001838103835289818151815260200191508051906020019080838360005b8381101561016957808201518184015260208101905061014e565b50505050905090810190601f1680156101965780820380516001836020036101000a031916815260200191505b50838103825287818151815260200191508051906020019080838360005b838110156101cf5780820151818401526020810190506101b4565b50505050905090810190601f1680156101fc5780820380516001836020036101000a031916815260200191505b509a505050505050505050505060405180910390f35b341561021d57600080fd5b6102256105a2565b6040518082815260200191505060405180910390f35b341561024657600080fd5b6102d4600480803573ffffffffffffffffffffffffffffffffffffffff1690602001909190803573ffffffffffffffffffffffffffffffffffffffff1690602001909190803590602001908201803590602001908080601f016020809104026020016040519081016040528093929190818152602001838380828437820191505050505050919050506105ae565b005b6000806102e161097c565b60006102eb61097c565b600080600080898154811015156102fe57fe5b906000526020600020906008020160000160009054906101000a900473ffffffffffffffffffffffffffffffffffffffff16975060008981548110151561034157fe5b906000526020600020906008020160010160009054906101000a900473ffffffffffffffffffffffffffffffffffffffff16965060008981548110151561038457fe5b90600052602060002090600802016002018054600181600116156101000203166002900480601f0160208091040260200160405190810160405280929190818152602001828054600181600116156101000203166002900480156104295780601f106103fe57610100808354040283529160200191610429565b820191906000526020600020905b81548152906001019060200180831161040c57829003601f168201915b5050505050955060008981548110151561043f57fe5b906000526020600020906008020160030160009054906101000a900473ffffffffffffffffffffffffffffffffffffffff16945060008981548110151561048257fe5b90600052602060002090600802016004018054600181600116156101000203166002900480601f0160208091040260200160405190810160405280929190818152602001828054600181600116156101000203166002900480156105275780601f106104fc57610100808354040283529160200191610527565b820191906000526020600020905b81548152906001019060200180831161050a57829003601f168201915b5050505050935060008981548110151561053d57fe5b906000526020600020906008020160050154925060008981548110151561056057fe5b906000526020600020906008020160060154915060008981548110151561058357fe5b9060005260206000209060080201600701549050919395975091939597565b60008080549050905090565b6000806000805490509150600080548091906001016105cd9190610990565b50846000838154811015156105de57fe5b906000526020600020906008020160010160006101000a81548173ffffffffffffffffffffffffffffffffffffffff021916908373ffffffffffffffffffffffffffffffffffffffff1602179055508360008381548110151561063d57fe5b906000526020600020906008020160000160006101000a81548173ffffffffffffffffffffffffffffffffffffffff021916908373ffffffffffffffffffffffffffffffffffffffff1602179055508260008381548110151561069c57fe5b906000526020600020906008020160020190805190602001906106c09291906109c2565b50600160008573ffffffffffffffffffffffffffffffffffffffff1673ffffffffffffffffffffffffffffffffffffffff168152602001908152602001600020805490509050600160008573ffffffffffffffffffffffffffffffffffffffff1673ffffffffffffffffffffffffffffffffffffffff16815260200190815260200160002080548091906001016107579190610990565b5060008281548110151561076757fe5b9060005260206000209060080201600160008673ffffffffffffffffffffffffffffffffffffffff1673ffffffffffffffffffffffffffffffffffffffff168152602001908152602001600020828154811015156107c157fe5b90600052602060002090600802016000820160009054906101000a900473ffffffffffffffffffffffffffffffffffffffff168160000160006101000a81548173ffffffffffffffffffffffffffffffffffffffff021916908373ffffffffffffffffffffffffffffffffffffffff1602179055506001820160009054906101000a900473ffffffffffffffffffffffffffffffffffffffff168160010160006101000a81548173ffffffffffffffffffffffffffffffffffffffff021916908373ffffffffffffffffffffffffffffffffffffffff160217905550600282018160020190805460018160011615610100020316600290046108c4929190610a42565b506003820160009054906101000a900473ffffffffffffffffffffffffffffffffffffffff168160030160006101000a81548173ffffffffffffffffffffffffffffffffffffffff021916908373ffffffffffffffffffffffffffffffffffffffff16021790555060048201816004019080546001816001161561010002031660029004610953929190610a42565b506005820154816005015560068201548160060155600782015481600701559050505050505050565b602060405190810160405280600081525090565b8154818355818115116109bd576008028160080283600052602060002091820191016109bc9190610ac9565b5b505050565b828054600181600116156101000203166002900490600052602060002090601f016020900481019282601f10610a0357805160ff1916838001178555610a31565b82800160010185558215610a31579182015b82811115610a30578251825591602001919060010190610a15565b5b509050610a3e9190610b95565b5090565b828054600181600116156101000203166002900490600052602060002090601f016020900481019282601f10610a7b5780548555610ab8565b82800160010185558215610ab857600052602060002091601f016020900482015b82811115610ab7578254825591600101919060010190610a9c565b5b509050610ac59190610b95565b5090565b610b9291905b80821115610b8e57600080820160006101000a81549073ffffffffffffffffffffffffffffffffffffffff02191690556001820160006101000a81549073ffffffffffffffffffffffffffffffffffffffff0219169055600282016000610b369190610bba565b6003820160006101000a81549073ffffffffffffffffffffffffffffffffffffffff0219169055600482016000610b6d9190610bba565b60058201600090556006820160009055600782016000905550600801610acf565b5090565b90565b610bb791905b80821115610bb3576000816000905550600101610b9b565b5090565b90565b50805460018160011615610100020316600290046000825580601f10610be05750610bff565b601f016020900490600052602060002090810190610bfe9190610b95565b5b505600a165627a7a723058209bf4bf0c41e9fcb437631770bdd986eacae7f2164fb0d91c37fdfc3c05ec890c0029",
  "source": "pragma solidity ^0.4.21;\n\ncontract RightsRegistry {\n\n    struct Right \n    {\n    \taddress holderEntity;\n    \taddress targetEntity;\n    \tstring rightsType;\n    \taddress rightsContract;\n    \tstring infoUrl;\n    \tuint status;\n        uint startTime;\n        uint expireTime;\n    }\n\n    Right[] rights;\n    mapping(address => Right[]) indexedByHolderEntity;\n    mapping(address => Right[]) indexedByRightsContract;\n\n    function addRight(address targetEntity, address holderEntity, string rightsType) \n    public\n    {\n    \t// Check that the rightsType for targetEntity isn't already taken \n\n        uint len = rights.length;\n\t\trights.length++;\n\t\trights[len].targetEntity = targetEntity;\n        rights[len].holderEntity = holderEntity;\n        rights[len].rightsType   = rightsType;\n\n        uint olen = indexedByHolderEntity[holderEntity].length;\n        indexedByHolderEntity[holderEntity].length++;\n        indexedByHolderEntity[holderEntity][olen] = rights[len];\n    }\n\n    function getNumRights() \n    public \n    view \n    returns (uint) \n    {\n        return rights.length;\n    }\n\n    function getRightAt(uint rightIndex) \n    public \n    view \n    returns \n\t(\n    \taddress holderEntity,\n    \taddress targetEntity,\n    \tstring rightsType,\n    \taddress rightsContract,\n    \tstring infoUrl,\n    \tuint status,\n        uint startTime,\n        uint expireTime\n\t) \n    {\n        holderEntity = rights[rightIndex].holderEntity;\n        targetEntity = rights[rightIndex].targetEntity;\n        rightsType = rights[rightIndex].rightsType;\n        rightsContract = rights[rightIndex].rightsContract;\n        infoUrl = rights[rightIndex].infoUrl;\n        status = rights[rightIndex].status;\n        startTime = rights[rightIndex].startTime;\n        expireTime = rights[rightIndex].expireTime;\n    }\n\n}\n",
  "sourcePath": "/home/wil/Documents/projects/tara/contracts/RightsRegistry.sol",
  "compiler": {
    "name": "solc",
    "version": "0.4.21+commit.dfe3193c.Emscripten.clang"
  },
  "schemaVersion": "2.0.0",
  "updatedAt": "2018-04-06T19:15:11.130Z"
}