{
  "contractName": "SpatialUnit",
  "abi": [
    {
      "constant": true,
      "inputs": [],
      "name": "geohash",
      "outputs": [
        {
          "name": "",
          "type": "string"
        }
      ],
      "payable": false,
      "stateMutability": "view",
      "type": "function"
    },
    {
      "constant": true,
      "inputs": [],
      "name": "owner",
      "outputs": [
        {
          "name": "",
          "type": "address"
        }
      ],
      "payable": false,
      "stateMutability": "view",
      "type": "function"
    },
    {
      "constant": true,
      "inputs": [],
      "name": "alias",
      "outputs": [
        {
          "name": "",
          "type": "string"
        }
      ],
      "payable": false,
      "stateMutability": "view",
      "type": "function"
    },
    {
      "constant": true,
      "inputs": [],
      "name": "receiver",
      "outputs": [
        {
          "name": "",
          "type": "address"
        }
      ],
      "payable": false,
      "stateMutability": "view",
      "type": "function"
    },
    {
      "inputs": [
        {
          "name": "_alias",
          "type": "string"
        },
        {
          "name": "_geohash",
          "type": "string"
        }
      ],
      "payable": true,
      "stateMutability": "payable",
      "type": "constructor"
    },
    {
      "payable": true,
      "stateMutability": "payable",
      "type": "fallback"
    },
    {
      "constant": true,
      "inputs": [],
      "name": "getBalance",
      "outputs": [
        {
          "name": "",
          "type": "uint256"
        }
      ],
      "payable": false,
      "stateMutability": "view",
      "type": "function"
    },
    {
      "constant": false,
      "inputs": [
        {
          "name": "_receiver",
          "type": "address"
        },
        {
          "name": "_amount",
          "type": "uint256"
        }
      ],
      "name": "execPayment",
      "outputs": [],
      "payable": true,
      "stateMutability": "payable",
      "type": "function"
    },
    {
      "constant": false,
      "inputs": [],
      "name": "receivePayment",
      "outputs": [],
      "payable": false,
      "stateMutability": "nonpayable",
      "type": "function"
    }
  ],
  "bytecode": "0x60606040526040516107e53803806107e583398101604052808051820191906020018051820191905050336000806101000a81548173ffffffffffffffffffffffffffffffffffffffff021916908373ffffffffffffffffffffffffffffffffffffffff160217905550816002908051906020019061007f92919061009e565b50806003908051906020019061009692919061009e565b505050610143565b828054600181600116156101000203166002900490600052602060002090601f016020900481019282601f106100df57805160ff191683800117855561010d565b8280016001018555821561010d579182015b8281111561010c5782518255916020019190600101906100f1565b5b50905061011a919061011e565b5090565b61014091905b8082111561013c576000816000905550600101610124565b5090565b90565b610693806101526000396000f300606060405260043610610083576000357c0100000000000000000000000000000000000000000000000000000000900463ffffffff16806308e44f881461008557806312065fe014610113578063835c19f31461013c5780638da5cb5b14610151578063a79cc09b146101a6578063dd71e3ac14610234578063f7260d3e1461026b575b005b341561009057600080fd5b6100986102c0565b6040518080602001828103825283818151815260200191508051906020019080838360005b838110156100d85780820151818401526020810190506100bd565b50505050905090810190601f1680156101055780820380516001836020036101000a031916815260200191505b509250505060405180910390f35b341561011e57600080fd5b61012661035e565b6040518082815260200191505060405180910390f35b341561014757600080fd5b61014f61037d565b005b341561015c57600080fd5b610164610449565b604051808273ffffffffffffffffffffffffffffffffffffffff1673ffffffffffffffffffffffffffffffffffffffff16815260200191505060405180910390f35b34156101b157600080fd5b6101b961046e565b6040518080602001828103825283818151815260200191508051906020019080838360005b838110156101f95780820151818401526020810190506101de565b50505050905090810190601f1680156102265780820380516001836020036101000a031916815260200191505b509250505060405180910390f35b610269600480803573ffffffffffffffffffffffffffffffffffffffff1690602001909190803590602001909190505061050c565b005b341561027657600080fd5b61027e610641565b604051808273ffffffffffffffffffffffffffffffffffffffff1673ffffffffffffffffffffffffffffffffffffffff16815260200191505060405180910390f35b60038054600181600116156101000203166002900480601f0160208091040260200160405190810160405280929190818152602001828054600181600116156101000203166002900480156103565780601f1061032b57610100808354040283529160200191610356565b820191906000526020600020905b81548152906001019060200180831161033957829003601f168201915b505050505081565b60003073ffffffffffffffffffffffffffffffffffffffff1631905090565b6000600460003373ffffffffffffffffffffffffffffffffffffffff1673ffffffffffffffffffffffffffffffffffffffff1681526020019081526020016000205490506000600460003373ffffffffffffffffffffffffffffffffffffffff1673ffffffffffffffffffffffffffffffffffffffff168152602001908152602001600020819055503373ffffffffffffffffffffffffffffffffffffffff166108fc829081150290604051600060405180830381858888f19350505050151561044657600080fd5b50565b6000809054906101000a900473ffffffffffffffffffffffffffffffffffffffff1681565b60028054600181600116156101000203166002900480601f0160208091040260200160405190810160405280929190818152602001828054600181600116156101000203166002900480156105045780601f106104d957610100808354040283529160200191610504565b820191906000526020600020905b8154815290600101906020018083116104e757829003601f168201915b505050505081565b6000809054906101000a900473ffffffffffffffffffffffffffffffffffffffff1673ffffffffffffffffffffffffffffffffffffffff163373ffffffffffffffffffffffffffffffffffffffff1614151561056757600080fd5b81600160006101000a81548173ffffffffffffffffffffffffffffffffffffffff021916908373ffffffffffffffffffffffffffffffffffffffff1602179055503073ffffffffffffffffffffffffffffffffffffffff163181111515156105ce57600080fd5b8060046000600160009054906101000a900473ffffffffffffffffffffffffffffffffffffffff1673ffffffffffffffffffffffffffffffffffffffff1673ffffffffffffffffffffffffffffffffffffffff168152602001908152602001600020600082825401925050819055505050565b600160009054906101000a900473ffffffffffffffffffffffffffffffffffffffff16815600a165627a7a72305820a02ba112a5c86643422e5ab1182c4b4b7f6a345808debaee4af73f5c199ca3140029",
  "source": "pragma solidity ^0.4.20;\n\ncontract SpatialUnit\n{\n    \n    address public owner;\n    address public receiver;\n    string public alias;\n    string public geohash;\n    \n    mapping(address => uint) paymentpool;\n    \n    function SpatialUnit(string _alias, string _geohash)\n    public\n    payable \n    {\n        owner = msg.sender;\n        alias = _alias;\n        geohash = _geohash;\n    }\n    \n    function () \n    public \n    payable \n    {\n        // fallback function\n    }\n    \n    function getBalance() \n    public \n    view\n    returns (uint)\n    {\n        return address(this).balance;\n    }\n    \n    function execPayment(address _receiver, uint _amount) \n    public \n    payable \n    onlyOwner \n    {\n        // it is generally advisable to use pull OVER push for external calls (as per ConsenSys Security Best Practices repo)\n        // _to = address to receive payment from SpatialUnit\n        // _amount = amount of ether to send to ExecuteReceiver\n        receiver = _receiver;\n        require(_amount <= address(this).balance);\n        paymentpool[receiver] += _amount;\n        \n        // address(_to).transfer(_amount);\n    }\n    \n    function receivePayment() \n    external \n    {\n        uint pmnt = paymentpool[msg.sender]; \n        paymentpool[msg.sender] = 0; \n        msg.sender.transfer(pmnt); \n    }\n    \n    modifier onlyOwner()\n    {\n        require(msg.sender == owner);\n        _;\n    }\n    \n}\n\ncontract SpatialUnitRegistry\n{\n    address public owner;\n    uint public numSpUnits;\n    mapping(address => Unit) records;\n    address[] public keys;\n    \n    // events\n    event SpatialUnitAdded(address owner, string _alias, string _geoHash);\n    \n    // structs    \n    struct Unit \n    {\n        address owner;\n        string alias;\n        string geoHash; \n        uint keysIndex;\n    }\n    \n    function SpatialUnitRegistry()\n    public\n    {\n        owner = msg.sender;\n    }\n    \n    function addSpatialUnit(string _alias, string _geoHash) \n    public \n    {\n        address newSpatialUnit = new SpatialUnit(_alias, _geoHash);\n        keys.push(newSpatialUnit);\n        records[newSpatialUnit].alias = _alias;\n        records[newSpatialUnit].geoHash = _geoHash;\n        records[newSpatialUnit].owner = msg.sender;\n        records[newSpatialUnit].keysIndex = keys.length;\n        keys[keys.length - 1] = address(newSpatialUnit);\n        numSpUnits++;\n        emit SpatialUnitAdded(msg.sender, _alias, _geoHash);\n    }\n    \n    function getSpatialUnit(address addr) \n    public\n    view\n    returns (address theowner, string alias, string geoHash) \n    {\n        theowner = records[addr].owner;\n        alias = records[addr].alias;\n        geoHash = records[addr].geoHash;\n    }\n    \n} \n",
  "sourcePath": "/home/wil/Documents/projects/tara/contracts/SpatialUnitRegistry.sol",
  "compiler": {
    "name": "solc",
    "version": "0.4.21+commit.dfe3193c.Emscripten.clang"
  },
  "schemaVersion": "2.0.0",
  "updatedAt": "2018-04-06T17:07:11.822Z"
}