{
  "contractName": "MetadataRegistry",
  "abi": [
    {
      "anonymous": false,
      "inputs": [
        {
          "indexed": true,
          "name": "issuer",
          "type": "address"
        },
        {
          "indexed": true,
          "name": "subject",
          "type": "address"
        },
        {
          "indexed": true,
          "name": "key",
          "type": "bytes32"
        },
        {
          "components": [
            {
              "name": "multiaddr",
              "type": "string"
            },
            {
              "name": "owner",
              "type": "address"
            }
          ],
          "indexed": false,
          "name": "value",
          "type": "tuple"
        },
        {
          "indexed": false,
          "name": "updatedAt",
          "type": "uint256"
        }
      ],
      "name": "LinkSet",
      "type": "event"
    },
    {
      "anonymous": false,
      "inputs": [
        {
          "indexed": true,
          "name": "issuer",
          "type": "address"
        },
        {
          "indexed": true,
          "name": "subject",
          "type": "address"
        },
        {
          "indexed": true,
          "name": "key",
          "type": "bytes32"
        },
        {
          "indexed": false,
          "name": "removedAt",
          "type": "uint256"
        }
      ],
      "name": "LinkRemoved",
      "type": "event"
    },
    {
      "constant": false,
      "inputs": [
        {
          "name": "_subject",
          "type": "address"
        },
        {
          "name": "_key",
          "type": "bytes32"
        },
        {
          "name": "_multiaddr",
          "type": "string"
        }
      ],
      "name": "setLink",
      "outputs": [],
      "payable": false,
      "stateMutability": "nonpayable",
      "type": "function"
    },
    {
      "constant": true,
      "inputs": [
        {
          "name": "_subject",
          "type": "address"
        },
        {
          "name": "_key",
          "type": "bytes32"
        }
      ],
      "name": "getLink",
      "outputs": [
        {
          "name": "multiaddr",
          "type": "string"
        },
        {
          "name": "owner",
          "type": "address"
        }
      ],
      "payable": false,
      "stateMutability": "view",
      "type": "function"
    },
    {
      "constant": false,
      "inputs": [
        {
          "name": "_subject",
          "type": "address"
        },
        {
          "name": "_key",
          "type": "bytes32"
        }
      ],
      "name": "removeLink",
      "outputs": [],
      "payable": false,
      "stateMutability": "nonpayable",
      "type": "function"
    },
    {
      "constant": true,
      "inputs": [],
      "name": "getNumLinks",
      "outputs": [
        {
          "name": "",
          "type": "uint256"
        }
      ],
      "payable": false,
      "stateMutability": "view",
      "type": "function"
    }
  ],
  "bytecode": "0x608060405234801561001057600080fd5b50610e2c806100206000396000f300608060405260043610610062576000357c0100000000000000000000000000000000000000000000000000000000900463ffffffff168063277240a8146100675780634888634c146100925780639648822514610129578063c56ef25f14610226575b600080fd5b34801561007357600080fd5b5061007c610277565b6040518082815260200191505060405180910390f35b34801561009e57600080fd5b50610127600480360381019080803573ffffffffffffffffffffffffffffffffffffffff1690602001909291908035600019169060200190929190803590602001908201803590602001908080601f0160208091040260200160405190810160405280939291908181526020018383808284378201915050505050509192919290505050610283565b005b34801561013557600080fd5b50610178600480360381019080803573ffffffffffffffffffffffffffffffffffffffff16906020019092919080356000191690602001909291905050506105fa565b60405180806020018373ffffffffffffffffffffffffffffffffffffffff1673ffffffffffffffffffffffffffffffffffffffff168152602001828103825284818151815260200191508051906020019080838360005b838110156101ea5780820151818401526020810190506101cf565b50505050905090810190601f1680156102175780820380516001836020036101000a031916815260200191505b50935050505060405180910390f35b34801561023257600080fd5b50610275600480360381019080803573ffffffffffffffffffffffffffffffffffffffff1690602001909291908035600019169060200190929190505050610779565b005b60008080549050905090565b61028b610c0a565b600080600160008773ffffffffffffffffffffffffffffffffffffffff1673ffffffffffffffffffffffffffffffffffffffff1681526020019081526020016000206000866000191660001916815260200190815260200160002060010160009054906101000a900473ffffffffffffffffffffffffffffffffffffffff1673ffffffffffffffffffffffffffffffffffffffff1614151561032c57600080fd5b60408051908101604052808481526020013373ffffffffffffffffffffffffffffffffffffffff16815250915081600160008773ffffffffffffffffffffffffffffffffffffffff1673ffffffffffffffffffffffffffffffffffffffff1681526020019081526020016000206000866000191660001916815260200190815260200160002060008201518160000190805190602001906103ce929190610c3a565b5060208201518160010160006101000a81548173ffffffffffffffffffffffffffffffffffffffff021916908373ffffffffffffffffffffffffffffffffffffffff1602179055509050506000805480919060010161042d9190610cba565b50600260008673ffffffffffffffffffffffffffffffffffffffff1673ffffffffffffffffffffffffffffffffffffffff168152602001908152602001600020805490509050600260008673ffffffffffffffffffffffffffffffffffffffff1673ffffffffffffffffffffffffffffffffffffffff16815260200190815260200160002080548091906001016104c49190610cec565b5083600260008773ffffffffffffffffffffffffffffffffffffffff1673ffffffffffffffffffffffffffffffffffffffff1681526020019081526020016000208281548110151561051257fe5b90600052602060002001816000191690555080600360008773ffffffffffffffffffffffffffffffffffffffff1673ffffffffffffffffffffffffffffffffffffffff168152602001908152602001600020600086600019166000191681526020019081526020016000208190555083600019168573ffffffffffffffffffffffffffffffffffffffff163373ffffffffffffffffffffffffffffffffffffffff167f3378cfd9541507fab6c1aae151406ab68418baa88c50e04162c6ba44f491fd218542604051808381526020018281526020019250505060405180910390a45050505050565b60606000600160008573ffffffffffffffffffffffffffffffffffffffff1673ffffffffffffffffffffffffffffffffffffffff168152602001908152602001600020600084600019166000191681526020019081526020016000206000018054600181600116156101000203166002900480601f0160208091040260200160405190810160405280929190818152602001828054600181600116156101000203166002900480156106ed5780601f106106c2576101008083540402835291602001916106ed565b820191906000526020600020905b8154815290600101906020018083116106d057829003601f168201915b50505050509150600160008573ffffffffffffffffffffffffffffffffffffffff1673ffffffffffffffffffffffffffffffffffffffff1681526020019081526020016000206000846000191660001916815260200190815260200160002060010160009054906101000a900473ffffffffffffffffffffffffffffffffffffffff1690509250929050565b6000806000600160008673ffffffffffffffffffffffffffffffffffffffff1673ffffffffffffffffffffffffffffffffffffffff1681526020019081526020016000206000856000191660001916815260200190815260200160002060010160009054906101000a900473ffffffffffffffffffffffffffffffffffffffff1673ffffffffffffffffffffffffffffffffffffffff161415151561081d57600080fd5b600160008573ffffffffffffffffffffffffffffffffffffffff1673ffffffffffffffffffffffffffffffffffffffff1681526020019081526020016000206000846000191660001916815260200190815260200160002060010160009054906101000a900473ffffffffffffffffffffffffffffffffffffffff1673ffffffffffffffffffffffffffffffffffffffff163373ffffffffffffffffffffffffffffffffffffffff161415156108d257600080fd5b600160008573ffffffffffffffffffffffffffffffffffffffff1673ffffffffffffffffffffffffffffffffffffffff168152602001908152602001600020600084600019166000191681526020019081526020016000206000808201600061093b9190610d18565b6001820160006101000a81549073ffffffffffffffffffffffffffffffffffffffff0219169055505060008054809190600190036109799190610cba565b50600360008573ffffffffffffffffffffffffffffffffffffffff1673ffffffffffffffffffffffffffffffffffffffff168152602001908152602001600020600084600019166000191681526020019081526020016000205491508190505b6001600260008673ffffffffffffffffffffffffffffffffffffffff1673ffffffffffffffffffffffffffffffffffffffff1681526020019081526020016000208054905003811015610aeb57600260008573ffffffffffffffffffffffffffffffffffffffff1673ffffffffffffffffffffffffffffffffffffffff16815260200190815260200160002060018201815481101515610a7557fe5b9060005260206000200154600260008673ffffffffffffffffffffffffffffffffffffffff1673ffffffffffffffffffffffffffffffffffffffff16815260200190815260200160002082815481101515610acc57fe5b90600052602060002001816000191690555080806001019150506109d9565b600260008573ffffffffffffffffffffffffffffffffffffffff1673ffffffffffffffffffffffffffffffffffffffff168152602001908152602001600020805480919060019003610b3d9190610cec565b50600360008573ffffffffffffffffffffffffffffffffffffffff1673ffffffffffffffffffffffffffffffffffffffff168152602001908152602001600020600084600019166000191681526020019081526020016000206000905582600019168473ffffffffffffffffffffffffffffffffffffffff163373ffffffffffffffffffffffffffffffffffffffff167fd9d23893eea65c3cd050c642c2c7a7ed35f6886577859db8d2d05aabf7a635c8426040518082815260200191505060405180910390a450505050565b604080519081016040528060608152602001600073ffffffffffffffffffffffffffffffffffffffff1681525090565b828054600181600116156101000203166002900490600052602060002090601f016020900481019282601f10610c7b57805160ff1916838001178555610ca9565b82800160010185558215610ca9579182015b82811115610ca8578251825591602001919060010190610c8d565b5b509050610cb69190610d60565b5090565b815481835581811115610ce757600202816002028360005260206000209182019101610ce69190610d85565b5b505050565b815481835581811115610d1357818360005260206000209182019101610d129190610ddb565b5b505050565b50805460018160011615610100020316600290046000825580601f10610d3e5750610d5d565b601f016020900490600052602060002090810190610d5c9190610d60565b5b50565b610d8291905b80821115610d7e576000816000905550600101610d66565b5090565b90565b610dd891905b80821115610dd45760008082016000610da49190610d18565b6001820160006101000a81549073ffffffffffffffffffffffffffffffffffffffff021916905550600201610d8b565b5090565b90565b610dfd91905b80821115610df9576000816000905550600101610de1565b5090565b905600a165627a7a723058203344f9ea9459f6e80daa48a10db67e142a534a79708e7c76e6a09cab0fb687f90029",
  "source": "pragma solidity ^0.4.23;\n\ncontract MetadataRegistry\n{\n\tstruct Link\n\t{\n\t\tstring multiaddr;\n\t\taddress owner;\n\t}\n\n    Link[] numLinks;\n\n\tmapping(address => mapping(bytes32 => Link)) internal registry;\n\tmapping(address => bytes32[]) internal subjectKeys;\n\tmapping(address => mapping(bytes32 => uint)) internal subjectKeysIndex;\n\n\tevent LinkSet\n\t(\n\t\taddress indexed issuer,\n\t\taddress indexed subject,\n\t\tbytes32 indexed key,\n\t\tLink value,\n\t\tuint updatedAt\n\t);\n\n\tevent LinkRemoved\n\t(\n\t\taddress indexed issuer,\n\t\taddress indexed subject,\n\t\tbytes32 indexed key,\n\t\tuint removedAt\n\t);\n\n\tfunction setLink(address _subject, bytes32 _key, string _multiaddr)\n\tpublic\n\t{\n\t\trequire(registry[_subject][_key].owner == 0);\n\t\tLink memory newLink = Link(_multiaddr, msg.sender);\n\t\tregistry[_subject][_key] = newLink;\n\t\tnumLinks.length++;\n\t\t\n\t\tuint olen = subjectKeys[_subject].length;\n\t\tsubjectKeys[_subject].length++;\n\t\tsubjectKeys[_subject][olen] = _key;\n\t\tsubjectKeysIndex[_subject][_key] = olen;\n\n\t\temit LinkSet(msg.sender, _subject, _key, newLink, now);\t\t\n\t}\n\n\tfunction getLink(address _subject, bytes32 _key)\n\tpublic\n\tconstant\n\treturns (string multiaddr, address owner)\n\t{\n\t\tmultiaddr = registry[_subject][_key].multiaddr;\n\t\towner = registry[_subject][_key].owner;\n\t}\n\t\n\tfunction removeLink(address _subject, bytes32 _key)\n\tpublic\n\t{\n\t\trequire(registry[_subject][_key].owner != 0);\n\t\trequire(msg.sender == registry[_subject][_key].owner);\n\t\tdelete registry[_subject][_key];\n\t\tnumLinks.length--;\n\t\t\n\t\tuint keyIndex = subjectKeysIndex[_subject][_key];\n\t\t\n\t\t// eliminate gap left in array\n\t\tfor (uint i = keyIndex; i < subjectKeys[_subject].length-1; i++)\n\t\t{\n\t\t\tsubjectKeys[_subject][i] = subjectKeys[_subject][i+1];\n\t\t}\n\t\t\n\t\t// removal of line below saves 5000 gas\n\t\t// delete subjectKeys[_subject][subjectKeys[_subject].length-1];\n\t\tsubjectKeys[_subject].length--;\n\n\t\tdelete subjectKeysIndex[_subject][_key];\n\n\t\temit LinkRemoved(msg.sender, _subject, _key, now);\n\t}\n\n\t// return number of links attributed to a particular SpatialUnit\n\tfunction getNumLinks()\n\tpublic \n\tconstant \n\treturns (uint)\n\t{\n\t\treturn numLinks.length;\n\t}\n}\n",
  "sourcePath": "/home/wil/Documents/projects/real-estate-standards/contracts/MetadataRegistry.sol",
  "compiler": {
    "name": "solc",
    "version": "0.4.24+commit.e67f0147.Emscripten.clang"
  },
  "schemaVersion": "2.0.0",
  "updatedAt": "2018-05-29T15:14:08.704Z"
}