{
  "contractName": "MetadataRegistry",
  "abi": [
    {
      "anonymous": false,
      "inputs": [
        {
          "indexed": true,
          "name": "issuer",
          "type": "address"
        },
        {
          "indexed": true,
          "name": "subject",
          "type": "address"
        },
        {
          "indexed": true,
          "name": "key",
          "type": "bytes32"
        },
        {
          "components": [
            {
              "name": "multiaddr",
              "type": "string"
            },
            {
              "name": "owner",
              "type": "address"
            }
          ],
          "indexed": false,
          "name": "value",
          "type": "tuple"
        },
        {
          "indexed": false,
          "name": "updatedAt",
          "type": "uint256"
        }
      ],
      "name": "LinkSet",
      "type": "event"
    },
    {
      "anonymous": false,
      "inputs": [
        {
          "indexed": true,
          "name": "issuer",
          "type": "address"
        },
        {
          "indexed": true,
          "name": "subject",
          "type": "address"
        },
        {
          "indexed": true,
          "name": "key",
          "type": "bytes32"
        },
        {
          "indexed": false,
          "name": "removedAt",
          "type": "uint256"
        }
      ],
      "name": "LinkRemoved",
      "type": "event"
    },
    {
      "constant": false,
      "inputs": [
        {
          "name": "_subject",
          "type": "address"
        },
        {
          "name": "_key",
          "type": "bytes32"
        },
        {
          "name": "_multiaddr",
          "type": "string"
        }
      ],
      "name": "setLink",
      "outputs": [],
      "payable": false,
      "stateMutability": "nonpayable",
      "type": "function"
    },
    {
      "constant": true,
      "inputs": [
        {
          "name": "_subject",
          "type": "address"
        },
        {
          "name": "_key",
          "type": "bytes32"
        }
      ],
      "name": "getLink",
      "outputs": [
        {
          "name": "multiaddr",
          "type": "string"
        },
        {
          "name": "owner",
          "type": "address"
        }
      ],
      "payable": false,
      "stateMutability": "view",
      "type": "function"
    },
    {
      "constant": false,
      "inputs": [
        {
          "name": "_subject",
          "type": "address"
        },
        {
          "name": "_key",
          "type": "bytes32"
        }
      ],
      "name": "removeLink",
      "outputs": [],
      "payable": false,
      "stateMutability": "nonpayable",
      "type": "function"
    },
    {
      "constant": true,
      "inputs": [],
      "name": "getNumLinks",
      "outputs": [
        {
          "name": "",
          "type": "uint256"
        }
      ],
      "payable": false,
      "stateMutability": "view",
      "type": "function"
    }
  ],
  "bytecode": "0x6060604052341561000f57600080fd5b610e3d8061001e6000396000f300606060405260043610610062576000357c0100000000000000000000000000000000000000000000000000000000900463ffffffff168063277240a8146100675780634888634c146100905780639648822514610119578063c56ef25f1461020b575b600080fd5b341561007257600080fd5b61007a610251565b6040518082815260200191505060405180910390f35b341561009b57600080fd5b610117600480803573ffffffffffffffffffffffffffffffffffffffff169060200190919080356000191690602001909190803590602001908201803590602001908080601f0160208091040260200160405190810160405280939291908181526020018383808284378201915050505050509190505061025d565b005b341561012457600080fd5b61015d600480803573ffffffffffffffffffffffffffffffffffffffff16906020019091908035600019169060200190919050506105d5565b60405180806020018373ffffffffffffffffffffffffffffffffffffffff1673ffffffffffffffffffffffffffffffffffffffff168152602001828103825284818151815260200191508051906020019080838360005b838110156101cf5780820151818401526020810190506101b4565b50505050905090810190601f1680156101fc5780820380516001836020036101000a031916815260200191505b50935050505060405180910390f35b341561021657600080fd5b61024f600480803573ffffffffffffffffffffffffffffffffffffffff169060200190919080356000191690602001909190505061075a565b005b60008080549050905090565b610265610bed565b600080600160008773ffffffffffffffffffffffffffffffffffffffff1673ffffffffffffffffffffffffffffffffffffffff1681526020019081526020016000206000866000191660001916815260200190815260200160002060010160009054906101000a900473ffffffffffffffffffffffffffffffffffffffff1673ffffffffffffffffffffffffffffffffffffffff1614151561030657600080fd5b60408051908101604052808481526020013373ffffffffffffffffffffffffffffffffffffffff16815250915081600160008773ffffffffffffffffffffffffffffffffffffffff1673ffffffffffffffffffffffffffffffffffffffff1681526020019081526020016000206000866000191660001916815260200190815260200160002060008201518160000190805190602001906103a8929190610c23565b5060208201518160010160006101000a81548173ffffffffffffffffffffffffffffffffffffffff021916908373ffffffffffffffffffffffffffffffffffffffff160217905550905050600080548091906001016104079190610ca3565b50600260008673ffffffffffffffffffffffffffffffffffffffff1673ffffffffffffffffffffffffffffffffffffffff168152602001908152602001600020805490509050600260008673ffffffffffffffffffffffffffffffffffffffff1673ffffffffffffffffffffffffffffffffffffffff168152602001908152602001600020805480919060010161049e9190610cd5565b5083600260008773ffffffffffffffffffffffffffffffffffffffff1673ffffffffffffffffffffffffffffffffffffffff168152602001908152602001600020828154811015156104ec57fe5b9060005260206000209001816000191690555080600360008773ffffffffffffffffffffffffffffffffffffffff1673ffffffffffffffffffffffffffffffffffffffff168152602001908152602001600020600086600019166000191681526020019081526020016000208190555083600019168573ffffffffffffffffffffffffffffffffffffffff163373ffffffffffffffffffffffffffffffffffffffff167f3378cfd9541507fab6c1aae151406ab68418baa88c50e04162c6ba44f491fd218542604051808381526020018281526020019250505060405180910390a45050505050565b6105dd610d01565b6000600160008573ffffffffffffffffffffffffffffffffffffffff1673ffffffffffffffffffffffffffffffffffffffff168152602001908152602001600020600084600019166000191681526020019081526020016000206000018054600181600116156101000203166002900480601f0160208091040260200160405190810160405280929190818152602001828054600181600116156101000203166002900480156106ce5780601f106106a3576101008083540402835291602001916106ce565b820191906000526020600020905b8154815290600101906020018083116106b157829003601f168201915b50505050509150600160008573ffffffffffffffffffffffffffffffffffffffff1673ffffffffffffffffffffffffffffffffffffffff1681526020019081526020016000206000846000191660001916815260200190815260200160002060010160009054906101000a900473ffffffffffffffffffffffffffffffffffffffff1690509250929050565b6000806000600160008673ffffffffffffffffffffffffffffffffffffffff1673ffffffffffffffffffffffffffffffffffffffff1681526020019081526020016000206000856000191660001916815260200190815260200160002060010160009054906101000a900473ffffffffffffffffffffffffffffffffffffffff1673ffffffffffffffffffffffffffffffffffffffff16141515156107fe57600080fd5b600160008573ffffffffffffffffffffffffffffffffffffffff1673ffffffffffffffffffffffffffffffffffffffff1681526020019081526020016000206000846000191660001916815260200190815260200160002060010160009054906101000a900473ffffffffffffffffffffffffffffffffffffffff1673ffffffffffffffffffffffffffffffffffffffff163373ffffffffffffffffffffffffffffffffffffffff161415156108b357600080fd5b600160008573ffffffffffffffffffffffffffffffffffffffff1673ffffffffffffffffffffffffffffffffffffffff168152602001908152602001600020600084600019166000191681526020019081526020016000206000808201600061091c9190610d15565b6001820160006101000a81549073ffffffffffffffffffffffffffffffffffffffff02191690555050600080548091906001900361095a9190610ca3565b50600360008573ffffffffffffffffffffffffffffffffffffffff1673ffffffffffffffffffffffffffffffffffffffff168152602001908152602001600020600084600019166000191681526020019081526020016000205491508190505b6001600260008673ffffffffffffffffffffffffffffffffffffffff1673ffffffffffffffffffffffffffffffffffffffff1681526020019081526020016000208054905003811015610ace57600260008573ffffffffffffffffffffffffffffffffffffffff1673ffffffffffffffffffffffffffffffffffffffff16815260200190815260200160002060018201815481101515610a5657fe5b906000526020600020900154600260008673ffffffffffffffffffffffffffffffffffffffff1673ffffffffffffffffffffffffffffffffffffffff16815260200190815260200160002082815481101515610aae57fe5b9060005260206000209001816000191690555080806001019150506109ba565b600260008573ffffffffffffffffffffffffffffffffffffffff1673ffffffffffffffffffffffffffffffffffffffff168152602001908152602001600020805480919060019003610b209190610cd5565b50600360008573ffffffffffffffffffffffffffffffffffffffff1673ffffffffffffffffffffffffffffffffffffffff168152602001908152602001600020600084600019166000191681526020019081526020016000206000905582600019168473ffffffffffffffffffffffffffffffffffffffff163373ffffffffffffffffffffffffffffffffffffffff167fd9d23893eea65c3cd050c642c2c7a7ed35f6886577859db8d2d05aabf7a635c8426040518082815260200191505060405180910390a450505050565b6040805190810160405280610c00610d5d565b8152602001600073ffffffffffffffffffffffffffffffffffffffff1681525090565b828054600181600116156101000203166002900490600052602060002090601f016020900481019282601f10610c6457805160ff1916838001178555610c92565b82800160010185558215610c92579182015b82811115610c91578251825591602001919060010190610c76565b5b509050610c9f9190610d71565b5090565b815481835581811511610cd057600202816002028360005260206000209182019101610ccf9190610d96565b5b505050565b815481835581811511610cfc57818360005260206000209182019101610cfb9190610dec565b5b505050565b602060405190810160405280600081525090565b50805460018160011615610100020316600290046000825580601f10610d3b5750610d5a565b601f016020900490600052602060002090810190610d599190610d71565b5b50565b602060405190810160405280600081525090565b610d9391905b80821115610d8f576000816000905550600101610d77565b5090565b90565b610de991905b80821115610de55760008082016000610db59190610d15565b6001820160006101000a81549073ffffffffffffffffffffffffffffffffffffffff021916905550600201610d9c565b5090565b90565b610e0e91905b80821115610e0a576000816000905550600101610df2565b5090565b905600a165627a7a72305820f38fda82f762d340bc56cb84d62427555063aa2d4b68f1caa66119d4ccb423850029",
  "source": "pragma solidity ^0.4.21;\n\ncontract MetadataRegistry\n{\n\tstruct Link\n\t{\n\t\tstring multiaddr;\n\t\taddress owner;\n\t}\n\n    Link[] numLinks;\n\n\tmapping(address => mapping(bytes32 => Link)) internal registry;\n\tmapping(address => bytes32[]) internal subjectKeys;\n\tmapping(address => mapping(bytes32 => uint)) internal subjectKeysIndex;\n\n\tevent LinkSet\n\t(\n\t\taddress indexed issuer,\n\t\taddress indexed subject,\n\t\tbytes32 indexed key,\n\t\tLink value,\n\t\tuint updatedAt\n\t);\n\n\tevent LinkRemoved\n\t(\n\t\taddress indexed issuer,\n\t\taddress indexed subject,\n\t\tbytes32 indexed key,\n\t\tuint removedAt\n\t);\n\n\tfunction setLink(address _subject, bytes32 _key, string _multiaddr)\n\tpublic\n\t{\n\t\trequire(registry[_subject][_key].owner == 0);\n\t\tLink memory newLink = Link(_multiaddr, msg.sender);\n\t\tregistry[_subject][_key] = newLink;\n\t\tnumLinks.length++;\n\t\t\n\t\tuint olen = subjectKeys[_subject].length;\n\t\tsubjectKeys[_subject].length++;\n\t\tsubjectKeys[_subject][olen] = _key;\n\t\tsubjectKeysIndex[_subject][_key] = olen;\n\n\t\temit LinkSet(msg.sender, _subject, _key, newLink, now);\t\t\n\t}\n\n\tfunction getLink(address _subject, bytes32 _key)\n\tpublic\n\tconstant\n\treturns (string multiaddr, address owner)\n\t{\n\t\tmultiaddr = registry[_subject][_key].multiaddr;\n\t\towner = registry[_subject][_key].owner;\n\t}\n\t\n\tfunction removeLink(address _subject, bytes32 _key)\n\tpublic\n\t{\n\t\t// asdf\n\t\trequire(registry[_subject][_key].owner != 0);\n\t\trequire(msg.sender == registry[_subject][_key].owner);\n\t\tdelete registry[_subject][_key];\n\t\tnumLinks.length--;\n\t\t\n\t\tuint keyIndex = subjectKeysIndex[_subject][_key];\n\t\t\n\t\t// eliminate gap left in array\n\t\tfor (uint i = keyIndex; i < subjectKeys[_subject].length-1; i++)\n\t\t{\n\t\t\tsubjectKeys[_subject][i] = subjectKeys[_subject][i+1];\n\t\t}\n\t\t\n\t\t// removal of line below saves 5000 gas\n\t\t// delete subjectKeys[_subject][subjectKeys[_subject].length-1];\n\t\tsubjectKeys[_subject].length--;\n\n\t\tdelete subjectKeysIndex[_subject][_key];\n\n\t\temit LinkRemoved(msg.sender, _subject, _key, now);\n\t}\n\n\t// return number of links attributed to a particular SpatialUnit\n\tfunction getNumLinks()\n\tpublic \n\tconstant \n\treturns (uint)\n\t{\n\t\treturn numLinks.length;\n\t}\n}\n",
  "sourcePath": "/home/wil/Documents/projects/tara/contracts/MetadataRegistry.sol",
  "compiler": {
    "name": "solc",
    "version": "0.4.21+commit.dfe3193c.Emscripten.clang"
  },
  "schemaVersion": "1.0.1",
  "updatedAt": "2018-04-25T09:08:29.846Z"
}