{
  "contractName": "RightsRegistry",
  "abi": [
    {
      "constant": false,
      "inputs": [
        {
          "name": "targetEntity",
          "type": "address"
        },
        {
          "name": "holderEntity",
          "type": "address"
        },
        {
          "name": "rightsType",
          "type": "string"
        }
      ],
      "name": "addRight",
      "outputs": [],
      "payable": false,
      "stateMutability": "nonpayable",
      "type": "function"
    },
    {
      "constant": true,
      "inputs": [],
      "name": "getNumRights",
      "outputs": [
        {
          "name": "",
          "type": "uint256"
        }
      ],
      "payable": false,
      "stateMutability": "view",
      "type": "function"
    },
    {
      "constant": true,
      "inputs": [
        {
          "name": "rightIndex",
          "type": "uint256"
        }
      ],
      "name": "getRightAt",
      "outputs": [
        {
          "name": "holderEntity",
          "type": "address"
        },
        {
          "name": "targetEntity",
          "type": "address"
        },
        {
          "name": "rightsType",
          "type": "string"
        },
        {
          "name": "rightsContract",
          "type": "address"
        },
        {
          "name": "infoUrl",
          "type": "string"
        },
        {
          "name": "status",
          "type": "uint256"
        },
        {
          "name": "startTime",
          "type": "uint256"
        },
        {
          "name": "expireTime",
          "type": "uint256"
        }
      ],
      "payable": false,
      "stateMutability": "view",
      "type": "function"
    }
  ],
  "bytecode": "0x608060405234801561001057600080fd5b50610c28806100206000396000f300608060405260043610610057576000357c0100000000000000000000000000000000000000000000000000000000900463ffffffff16806308ebe87b1461005c578063d9ce2a6f1461021c578063fe24e42514610247575b600080fd5b34801561006857600080fd5b50610087600480360381019080803590602001909291905050506102f0565b604051808973ffffffffffffffffffffffffffffffffffffffff1673ffffffffffffffffffffffffffffffffffffffff1681526020018873ffffffffffffffffffffffffffffffffffffffff1673ffffffffffffffffffffffffffffffffffffffff168152602001806020018773ffffffffffffffffffffffffffffffffffffffff1673ffffffffffffffffffffffffffffffffffffffff16815260200180602001868152602001858152602001848152602001838103835289818151815260200191508051906020019080838360005b83811015610173578082015181840152602081019050610158565b50505050905090810190601f1680156101a05780820380516001836020036101000a031916815260200191505b50838103825287818151815260200191508051906020019080838360005b838110156101d95780820151818401526020810190506101be565b50505050905090810190601f1680156102065780820380516001836020036101000a031916815260200191505b509a505050505050505050505060405180910390f35b34801561022857600080fd5b506102316105b0565b6040518082815260200191505060405180910390f35b34801561025357600080fd5b506102ee600480360381019080803573ffffffffffffffffffffffffffffffffffffffff169060200190929190803573ffffffffffffffffffffffffffffffffffffffff169060200190929190803590602001908201803590602001908080601f01602080910402602001604051908101604052809392919081815260200183838082843782019150505050505091929192905050506105bc565b005b6000806060600060606000806000808981548110151561030c57fe5b906000526020600020906008020160000160009054906101000a900473ffffffffffffffffffffffffffffffffffffffff16975060008981548110151561034f57fe5b906000526020600020906008020160010160009054906101000a900473ffffffffffffffffffffffffffffffffffffffff16965060008981548110151561039257fe5b90600052602060002090600802016002018054600181600116156101000203166002900480601f0160208091040260200160405190810160405280929190818152602001828054600181600116156101000203166002900480156104375780601f1061040c57610100808354040283529160200191610437565b820191906000526020600020905b81548152906001019060200180831161041a57829003601f168201915b5050505050955060008981548110151561044d57fe5b906000526020600020906008020160030160009054906101000a900473ffffffffffffffffffffffffffffffffffffffff16945060008981548110151561049057fe5b90600052602060002090600802016004018054600181600116156101000203166002900480601f0160208091040260200160405190810160405280929190818152602001828054600181600116156101000203166002900480156105355780601f1061050a57610100808354040283529160200191610535565b820191906000526020600020905b81548152906001019060200180831161051857829003601f168201915b5050505050935060008981548110151561054b57fe5b906000526020600020906008020160050154925060008981548110151561056e57fe5b906000526020600020906008020160060154915060008981548110151561059157fe5b9060005260206000209060080201600701549050919395975091939597565b60008080549050905090565b6000806000805490509150600080548091906001016105db919061098a565b50846000838154811015156105ec57fe5b906000526020600020906008020160010160006101000a81548173ffffffffffffffffffffffffffffffffffffffff021916908373ffffffffffffffffffffffffffffffffffffffff1602179055508360008381548110151561064b57fe5b906000526020600020906008020160000160006101000a81548173ffffffffffffffffffffffffffffffffffffffff021916908373ffffffffffffffffffffffffffffffffffffffff160217905550826000838154811015156106aa57fe5b906000526020600020906008020160020190805190602001906106ce9291906109bc565b50600160008573ffffffffffffffffffffffffffffffffffffffff1673ffffffffffffffffffffffffffffffffffffffff168152602001908152602001600020805490509050600160008573ffffffffffffffffffffffffffffffffffffffff1673ffffffffffffffffffffffffffffffffffffffff1681526020019081526020016000208054809190600101610765919061098a565b5060008281548110151561077557fe5b9060005260206000209060080201600160008673ffffffffffffffffffffffffffffffffffffffff1673ffffffffffffffffffffffffffffffffffffffff168152602001908152602001600020828154811015156107cf57fe5b90600052602060002090600802016000820160009054906101000a900473ffffffffffffffffffffffffffffffffffffffff168160000160006101000a81548173ffffffffffffffffffffffffffffffffffffffff021916908373ffffffffffffffffffffffffffffffffffffffff1602179055506001820160009054906101000a900473ffffffffffffffffffffffffffffffffffffffff168160010160006101000a81548173ffffffffffffffffffffffffffffffffffffffff021916908373ffffffffffffffffffffffffffffffffffffffff160217905550600282018160020190805460018160011615610100020316600290046108d2929190610a3c565b506003820160009054906101000a900473ffffffffffffffffffffffffffffffffffffffff168160030160006101000a81548173ffffffffffffffffffffffffffffffffffffffff021916908373ffffffffffffffffffffffffffffffffffffffff16021790555060048201816004019080546001816001161561010002031660029004610961929190610a3c565b506005820154816005015560068201548160060155600782015481600701559050505050505050565b8154818355818111156109b7576008028160080283600052602060002091820191016109b69190610ac3565b5b505050565b828054600181600116156101000203166002900490600052602060002090601f016020900481019282601f106109fd57805160ff1916838001178555610a2b565b82800160010185558215610a2b579182015b82811115610a2a578251825591602001919060010190610a0f565b5b509050610a389190610b8f565b5090565b828054600181600116156101000203166002900490600052602060002090601f016020900481019282601f10610a755780548555610ab2565b82800160010185558215610ab257600052602060002091601f016020900482015b82811115610ab1578254825591600101919060010190610a96565b5b509050610abf9190610b8f565b5090565b610b8c91905b80821115610b8857600080820160006101000a81549073ffffffffffffffffffffffffffffffffffffffff02191690556001820160006101000a81549073ffffffffffffffffffffffffffffffffffffffff0219169055600282016000610b309190610bb4565b6003820160006101000a81549073ffffffffffffffffffffffffffffffffffffffff0219169055600482016000610b679190610bb4565b60058201600090556006820160009055600782016000905550600801610ac9565b5090565b90565b610bb191905b80821115610bad576000816000905550600101610b95565b5090565b90565b50805460018160011615610100020316600290046000825580601f10610bda5750610bf9565b601f016020900490600052602060002090810190610bf89190610b8f565b5b505600a165627a7a72305820d7f13189401c5cedd8a420b3fb531be9b1276f2ed50a5fafd1a26bb36b13c2e40029",
  "source": "pragma solidity ^0.4.23;\n\ncontract RightsRegistry {\n\n    struct Right \n    {\n    \taddress holderEntity;\n    \taddress targetEntity;\n    \tstring rightsType;\n    \taddress rightsContract;\n    \tstring infoUrl;\n    \tuint status;\n        uint startTime;\n        uint expireTime;\n    }\n\n    Right[] rights;\n    mapping(address => Right[]) indexedByHolderEntity;\n    mapping(address => Right[]) indexedByRightsContract;\n\n    function addRight(address targetEntity, address holderEntity, string rightsType) \n    public\n    {\n    \t// Check that the rightsType for targetEntity isn't already taken \n\n        uint len = rights.length;\n\t\trights.length++;\n\t\trights[len].targetEntity = targetEntity;\n        rights[len].holderEntity = holderEntity;\n        rights[len].rightsType   = rightsType;\n\n        uint olen = indexedByHolderEntity[holderEntity].length;\n        indexedByHolderEntity[holderEntity].length++;\n        indexedByHolderEntity[holderEntity][olen] = rights[len];\n    }\n\n    function getNumRights() \n    public \n    view \n    returns (uint) \n    {\n        return rights.length;\n    }\n\n    function getRightAt(uint rightIndex) \n    public \n    view \n    returns \n\t(\n    \taddress holderEntity,\n    \taddress targetEntity,\n    \tstring rightsType,\n    \taddress rightsContract,\n    \tstring infoUrl,\n    \tuint status,\n        uint startTime,\n        uint expireTime\n\t) \n    {\n        holderEntity = rights[rightIndex].holderEntity;\n        targetEntity = rights[rightIndex].targetEntity;\n        rightsType = rights[rightIndex].rightsType;\n        rightsContract = rights[rightIndex].rightsContract;\n        infoUrl = rights[rightIndex].infoUrl;\n        status = rights[rightIndex].status;\n        startTime = rights[rightIndex].startTime;\n        expireTime = rights[rightIndex].expireTime;\n    }\n\n}\n",
  "sourcePath": "/home/wil/Documents/projects/tara/contracts/RightsRegistry.sol",
  "compiler": {
    "name": "solc",
    "version": "0.4.23+commit.124ca40d.Emscripten.clang"
  },
  "schemaVersion": "1.0.1",
  "updatedAt": "2018-04-25T09:08:29.868Z"
}