{
  "contractName": "SpatialUnit",
  "abi": [
    {
      "constant": true,
      "inputs": [],
      "name": "geohash",
      "outputs": [
        {
          "name": "",
          "type": "string"
        }
      ],
      "payable": false,
      "stateMutability": "view",
      "type": "function"
    },
    {
      "constant": true,
      "inputs": [],
      "name": "registry_address",
      "outputs": [
        {
          "name": "",
          "type": "address"
        }
      ],
      "payable": false,
      "stateMutability": "view",
      "type": "function"
    },
    {
      "constant": true,
      "inputs": [
        {
          "name": "",
          "type": "uint256"
        }
      ],
      "name": "ownerhistory",
      "outputs": [
        {
          "name": "",
          "type": "address"
        }
      ],
      "payable": false,
      "stateMutability": "view",
      "type": "function"
    },
    {
      "constant": true,
      "inputs": [],
      "name": "owner",
      "outputs": [
        {
          "name": "",
          "type": "address"
        }
      ],
      "payable": false,
      "stateMutability": "view",
      "type": "function"
    },
    {
      "constant": true,
      "inputs": [],
      "name": "alias",
      "outputs": [
        {
          "name": "",
          "type": "string"
        }
      ],
      "payable": false,
      "stateMutability": "view",
      "type": "function"
    },
    {
      "constant": true,
      "inputs": [],
      "name": "ownertransfercount",
      "outputs": [
        {
          "name": "",
          "type": "uint256"
        }
      ],
      "payable": false,
      "stateMutability": "view",
      "type": "function"
    },
    {
      "constant": true,
      "inputs": [],
      "name": "receiver",
      "outputs": [
        {
          "name": "",
          "type": "address"
        }
      ],
      "payable": false,
      "stateMutability": "view",
      "type": "function"
    },
    {
      "inputs": [
        {
          "name": "_owner",
          "type": "address"
        },
        {
          "name": "_alias",
          "type": "string"
        },
        {
          "name": "_geohash",
          "type": "string"
        }
      ],
      "payable": true,
      "stateMutability": "payable",
      "type": "constructor"
    },
    {
      "payable": true,
      "stateMutability": "payable",
      "type": "fallback"
    },
    {
      "constant": true,
      "inputs": [],
      "name": "getBalance",
      "outputs": [
        {
          "name": "",
          "type": "uint256"
        }
      ],
      "payable": false,
      "stateMutability": "view",
      "type": "function"
    },
    {
      "constant": false,
      "inputs": [
        {
          "name": "_key",
          "type": "bytes32"
        },
        {
          "name": "_value",
          "type": "bytes32"
        }
      ],
      "name": "store",
      "outputs": [],
      "payable": false,
      "stateMutability": "nonpayable",
      "type": "function"
    },
    {
      "constant": true,
      "inputs": [
        {
          "name": "_key",
          "type": "bytes32"
        }
      ],
      "name": "retrieve",
      "outputs": [
        {
          "name": "_stored_val",
          "type": "bytes32"
        }
      ],
      "payable": false,
      "stateMutability": "view",
      "type": "function"
    },
    {
      "constant": false,
      "inputs": [
        {
          "name": "_newOwner",
          "type": "address"
        }
      ],
      "name": "changeOwner",
      "outputs": [
        {
          "name": "",
          "type": "address"
        }
      ],
      "payable": false,
      "stateMutability": "nonpayable",
      "type": "function"
    },
    {
      "constant": false,
      "inputs": [
        {
          "name": "_receiver",
          "type": "address"
        },
        {
          "name": "_amount",
          "type": "uint256"
        }
      ],
      "name": "execPayment",
      "outputs": [],
      "payable": true,
      "stateMutability": "payable",
      "type": "function"
    },
    {
      "constant": false,
      "inputs": [],
      "name": "receivePayment",
      "outputs": [],
      "payable": false,
      "stateMutability": "nonpayable",
      "type": "function"
    }
  ],
  "bytecode": "0x6080604052604051610d8c380380610d8c833981018060405281019080805190602001909291908051820192919060200180518201929190505050826000806101000a81548173ffffffffffffffffffffffffffffffffffffffff021916908373ffffffffffffffffffffffffffffffffffffffff16021790555060056000809054906101000a900473ffffffffffffffffffffffffffffffffffffffff1690806001815401808255809150509060018203906000526020600020016000909192909190916101000a81548173ffffffffffffffffffffffffffffffffffffffff021916908373ffffffffffffffffffffffffffffffffffffffff1602179055505033600160006101000a81548173ffffffffffffffffffffffffffffffffffffffff021916908373ffffffffffffffffffffffffffffffffffffffff1602179055508160039080519060200190610158929190610178565b50806004908051906020019061016f929190610178565b5050505061021d565b828054600181600116156101000203166002900490600052602060002090601f016020900481019282601f106101b957805160ff19168380011785556101e7565b828001600101855582156101e7579182015b828111156101e65782518255916020019190600101906101cb565b5b5090506101f491906101f8565b5090565b61021a91905b808211156102165760008160009055506001016101fe565b5090565b90565b610b608061022c6000396000f3006080604052600436106100c5576000357c0100000000000000000000000000000000000000000000000000000000900463ffffffff16806308e44f88146100c757806312065fe0146101575780632dceee2e146101825780634000e4f6146101d957806382a79afa14610218578063835c19f3146102855780638da5cb5b1461029c578063a6f9dae1146102f3578063a79cc09b14610376578063d1ed74ad14610406578063dabf5f9e14610453578063dd71e3ac1461047e578063f7260d3e146104be575b005b3480156100d357600080fd5b506100dc610515565b6040518080602001828103825283818151815260200191508051906020019080838360005b8381101561011c578082015181840152602081019050610101565b50505050905090810190601f1680156101495780820380516001836020036101000a031916815260200191505b509250505060405180910390f35b34801561016357600080fd5b5061016c6105b3565b6040518082815260200191505060405180910390f35b34801561018e57600080fd5b506101976105d2565b604051808273ffffffffffffffffffffffffffffffffffffffff1673ffffffffffffffffffffffffffffffffffffffff16815260200191505060405180910390f35b3480156101e557600080fd5b50610216600480360381019080803560001916906020019092919080356000191690602001909291905050506105f8565b005b34801561022457600080fd5b506102436004803603810190808035906020019092919050505061067b565b604051808273ffffffffffffffffffffffffffffffffffffffff1673ffffffffffffffffffffffffffffffffffffffff16815260200191505060405180910390f35b34801561029157600080fd5b5061029a6106b9565b005b3480156102a857600080fd5b506102b161078c565b604051808273ffffffffffffffffffffffffffffffffffffffff1673ffffffffffffffffffffffffffffffffffffffff16815260200191505060405180910390f35b3480156102ff57600080fd5b50610334600480360381019080803573ffffffffffffffffffffffffffffffffffffffff1690602001909291905050506107b1565b604051808273ffffffffffffffffffffffffffffffffffffffff1673ffffffffffffffffffffffffffffffffffffffff16815260200191505060405180910390f35b34801561038257600080fd5b5061038b610910565b6040518080602001828103825283818151815260200191508051906020019080838360005b838110156103cb5780820151818401526020810190506103b0565b50505050905090810190601f1680156103f85780820380516001836020036101000a031916815260200191505b509250505060405180910390f35b34801561041257600080fd5b5061043560048036038101908080356000191690602001909291905050506109ae565b60405180826000191660001916815260200191505060405180910390f35b34801561045f57600080fd5b506104686109d3565b6040518082815260200191505060405180910390f35b6104bc600480360381019080803573ffffffffffffffffffffffffffffffffffffffff169060200190929190803590602001909291905050506109d9565b005b3480156104ca57600080fd5b506104d3610b0e565b604051808273ffffffffffffffffffffffffffffffffffffffff1673ffffffffffffffffffffffffffffffffffffffff16815260200191505060405180910390f35b60048054600181600116156101000203166002900480601f0160208091040260200160405190810160405280929190818152602001828054600181600116156101000203166002900480156105ab5780601f10610580576101008083540402835291602001916105ab565b820191906000526020600020905b81548152906001019060200180831161058e57829003601f168201915b505050505081565b60003073ffffffffffffffffffffffffffffffffffffffff1631905090565b600160009054906101000a900473ffffffffffffffffffffffffffffffffffffffff1681565b6000809054906101000a900473ffffffffffffffffffffffffffffffffffffffff1673ffffffffffffffffffffffffffffffffffffffff163373ffffffffffffffffffffffffffffffffffffffff1614151561065357600080fd5b8060086000846000191660001916815260200190815260200160002081600019169055505050565b60058181548110151561068a57fe5b906000526020600020016000915054906101000a900473ffffffffffffffffffffffffffffffffffffffff1681565b6000600760003373ffffffffffffffffffffffffffffffffffffffff1673ffffffffffffffffffffffffffffffffffffffff1681526020019081526020016000205490506000600760003373ffffffffffffffffffffffffffffffffffffffff1673ffffffffffffffffffffffffffffffffffffffff168152602001908152602001600020819055503373ffffffffffffffffffffffffffffffffffffffff166108fc829081150290604051600060405180830381858888f19350505050158015610788573d6000803e3d6000fd5b5050565b6000809054906101000a900473ffffffffffffffffffffffffffffffffffffffff1681565b60008060009054906101000a900473ffffffffffffffffffffffffffffffffffffffff1673ffffffffffffffffffffffffffffffffffffffff163373ffffffffffffffffffffffffffffffffffffffff1614151561080e57600080fd5b816000806101000a81548173ffffffffffffffffffffffffffffffffffffffff021916908373ffffffffffffffffffffffffffffffffffffffff16021790555060056000809054906101000a900473ffffffffffffffffffffffffffffffffffffffff1690806001815401808255809150509060018203906000526020600020016000909192909190916101000a81548173ffffffffffffffffffffffffffffffffffffffff021916908373ffffffffffffffffffffffffffffffffffffffff160217905550506006600081548092919060010191905055506000809054906101000a900473ffffffffffffffffffffffffffffffffffffffff169050919050565b60038054600181600116156101000203166002900480601f0160208091040260200160405190810160405280929190818152602001828054600181600116156101000203166002900480156109a65780601f1061097b576101008083540402835291602001916109a6565b820191906000526020600020905b81548152906001019060200180831161098957829003601f168201915b505050505081565b6000600860008360001916600019168152602001908152602001600020549050919050565b60065481565b6000809054906101000a900473ffffffffffffffffffffffffffffffffffffffff1673ffffffffffffffffffffffffffffffffffffffff163373ffffffffffffffffffffffffffffffffffffffff16141515610a3457600080fd5b81600260006101000a81548173ffffffffffffffffffffffffffffffffffffffff021916908373ffffffffffffffffffffffffffffffffffffffff1602179055503073ffffffffffffffffffffffffffffffffffffffff16318111151515610a9b57600080fd5b8060076000600260009054906101000a900473ffffffffffffffffffffffffffffffffffffffff1673ffffffffffffffffffffffffffffffffffffffff1673ffffffffffffffffffffffffffffffffffffffff168152602001908152602001600020600082825401925050819055505050565b600260009054906101000a900473ffffffffffffffffffffffffffffffffffffffff16815600a165627a7a7230582098ec0be66f03d778adbc8a366bad6f220c674ec6055551518062d491fcd548d90029",
  "source": "pragma solidity ^0.4.22;\n\ncontract SpatialUnit  \n{\n    \n    address public owner;\n\taddress public registry_address;\n    address public receiver;\n    string public alias;\n    string public geohash;\n    address[] public ownerhistory;\n\tuint public ownertransfercount;\n    \n    mapping(address => uint) paymentpool;\n\tmapping(bytes32 => bytes32) keyvaluestore;\n    \n    function SpatialUnit(address _owner, string _alias, string _geohash)\n    public\n    payable \n    {\n        owner = _owner;\n\t\townerhistory.push(owner);\n\t\tregistry_address = msg.sender;\n        alias = _alias;\n        geohash = _geohash;\n    }\n    \n    function () \n    public \n    payable \n    {\n        // fallback function\n    }\n    \n    function getBalance() \n    public \n    view \n    returns (uint)\n    {\n        return (address(this).balance);\n    }\n\n\tfunction store(bytes32 _key, bytes32 _value)\n\tpublic\n\t{\n\t\trequire(msg.sender == owner);\n\t\tkeyvaluestore[_key] = _value;\n\t}\n\n\tfunction retrieve(bytes32 _key)\n\tpublic\n\tview \n\treturns (bytes32 _stored_val)\n\t{\n\t\treturn (keyvaluestore[_key]);\n\t}\n    \n\tfunction changeOwner(address _newOwner)\n\tpublic \n\treturns (address)\n\t{\n\t\trequire(msg.sender == owner);\n\t\towner = _newOwner;\n\t\townerhistory.push(owner);\n\t\townertransfercount++;\n\t\treturn (address(owner));\n\t}\n\n    function execPayment(address _receiver, uint _amount) \n    public \n    payable \n    {\n\t\trequire(msg.sender == owner);\n        receiver = _receiver;\n        require(_amount <= address(this).balance);\n        paymentpool[receiver] += _amount;\n    }\n    \n    function receivePayment() \n    external \n    {\n        uint pmnt = paymentpool[msg.sender]; \n        paymentpool[msg.sender] = 0; \n        msg.sender.transfer(pmnt); \n    }\n}\n\ncontract SpatialUnitRegistry\n{\n    address public owner;\n\t// adding creator in addition to owner because ownership of a Spatial Unit can be transferred later\n    uint public numSpUnits;\n    mapping(address => Unit) records;\n    address[] public keys;\n    \n    // events\n    event SpatialUnitAdded(address indexed owner, string indexed _alias, string indexed _geoHash);\n    \n    // structs    \n    struct Unit \n    {\n        address creator;\n        string alias;\n        string geoHash; \n        uint keysIndex;\n    }\n    \n    function SpatialUnitRegistry()\n    public\n    {\n        owner = msg.sender;\n    }\n    \n    function addSpatialUnit(string _alias, string _geoHash) \n    public\n\treturns (address _newSpatialunit, uint _keyslength)\n    {\n        SpatialUnit newSpatialUnit = new SpatialUnit(msg.sender, _alias, _geoHash);\n        // newSpatialUnit.changeOwner(msg.sender);\n        keys.push(newSpatialUnit);\n        records[newSpatialUnit].alias = _alias;\n        records[newSpatialUnit].geoHash = _geoHash;\n        records[newSpatialUnit].creator = msg.sender;\n        records[newSpatialUnit].keysIndex = keys.length;\n        numSpUnits++;\n        emit SpatialUnitAdded(newSpatialUnit, _alias, _geoHash);\n\t\treturn (address(newSpatialUnit), keys.length);\n    }\n    \n    function getSpatialUnit(address addr) \n    public\n    view\n    returns (address creator, string alias, string geoHash) \n    {\n        creator = records[addr].creator;\n        alias = records[addr].alias;\n        geoHash = records[addr].geoHash;\n\t\treturn (creator, alias, geoHash);\n    }\n    \n} \n",
  "sourcePath": "/home/wil/Documents/projects/real-estate-standards/contracts/SpatialUnitRegistry.sol",
  "compiler": {
    "name": "solc",
    "version": "0.4.24+commit.e67f0147.Emscripten.clang"
  },
  "schemaVersion": "2.0.0",
  "updatedAt": "2018-05-31T16:54:21.120Z"
}