{
  "contractName": "SpatialUnitRegistry",
  "abi": [
    {
      "constant": true,
      "inputs": [
        {
          "name": "",
          "type": "uint256"
        }
      ],
      "name": "keys",
      "outputs": [
        {
          "name": "",
          "type": "address"
        }
      ],
      "payable": false,
      "stateMutability": "view",
      "type": "function"
    },
    {
      "constant": true,
      "inputs": [],
      "name": "owner",
      "outputs": [
        {
          "name": "",
          "type": "address"
        }
      ],
      "payable": false,
      "stateMutability": "view",
      "type": "function"
    },
    {
      "constant": true,
      "inputs": [],
      "name": "numSpUnits",
      "outputs": [
        {
          "name": "",
          "type": "uint256"
        }
      ],
      "payable": false,
      "stateMutability": "view",
      "type": "function"
    },
    {
      "inputs": [],
      "payable": false,
      "stateMutability": "nonpayable",
      "type": "constructor"
    },
    {
      "anonymous": false,
      "inputs": [
        {
          "indexed": true,
          "name": "owner",
          "type": "address"
        },
        {
          "indexed": true,
          "name": "_alias",
          "type": "string"
        },
        {
          "indexed": true,
          "name": "_geoHash",
          "type": "string"
        }
      ],
      "name": "SpatialUnitAdded",
      "type": "event"
    },
    {
      "constant": false,
      "inputs": [
        {
          "name": "_alias",
          "type": "string"
        },
        {
          "name": "_geoHash",
          "type": "string"
        }
      ],
      "name": "addSpatialUnit",
      "outputs": [
        {
          "name": "_newSpatialunit",
          "type": "address"
        },
        {
          "name": "_keyslength",
          "type": "uint256"
        }
      ],
      "payable": false,
      "stateMutability": "nonpayable",
      "type": "function"
    },
    {
      "constant": true,
      "inputs": [
        {
          "name": "addr",
          "type": "address"
        }
      ],
      "name": "getSpatialUnit",
      "outputs": [
        {
          "name": "theowner",
          "type": "address"
        },
        {
          "name": "alias",
          "type": "string"
        },
        {
          "name": "geoHash",
          "type": "string"
        }
      ],
      "payable": false,
      "stateMutability": "view",
      "type": "function"
    }
  ],
  "bytecode": "0x608060405234801561001057600080fd5b50336000806101000a81548173ffffffffffffffffffffffffffffffffffffffff021916908373ffffffffffffffffffffffffffffffffffffffff160217905550611951806100606000396000f30060806040526004361061006d576000357c0100000000000000000000000000000000000000000000000000000000900463ffffffff1680630cb6aaf11461007257806324dcee68146100df5780638da5cb5b1461023a57806392e78d1814610291578063f94b0263146102bc575b600080fd5b34801561007e57600080fd5b5061009d600480360381019080803590602001909291905050506103b2565b604051808273ffffffffffffffffffffffffffffffffffffffff1673ffffffffffffffffffffffffffffffffffffffff16815260200191505060405180910390f35b3480156100eb57600080fd5b50610120600480360381019080803573ffffffffffffffffffffffffffffffffffffffff1690602001909291905050506103f0565b604051808473ffffffffffffffffffffffffffffffffffffffff1673ffffffffffffffffffffffffffffffffffffffff1681526020018060200180602001838103835285818151815260200191508051906020019080838360005b8381101561019657808201518184015260208101905061017b565b50505050905090810190601f1680156101c35780820380516001836020036101000a031916815260200191505b50838103825284818151815260200191508051906020019080838360005b838110156101fc5780820151818401526020810190506101e1565b50505050905090810190601f1680156102295780820380516001836020036101000a031916815260200191505b509550505050505060405180910390f35b34801561024657600080fd5b5061024f61061b565b604051808273ffffffffffffffffffffffffffffffffffffffff1673ffffffffffffffffffffffffffffffffffffffff16815260200191505060405180910390f35b34801561029d57600080fd5b506102a6610640565b6040518082815260200191505060405180910390f35b3480156102c857600080fd5b50610369600480360381019080803590602001908201803590602001908080601f0160208091040260200160405190810160405280939291908181526020018383808284378201915050505050509192919290803590602001908201803590602001908080601f0160208091040260200160405190810160405280939291908181526020018383808284378201915050505050509192919290505050610646565b604051808373ffffffffffffffffffffffffffffffffffffffff1673ffffffffffffffffffffffffffffffffffffffff1681526020018281526020019250505060405180910390f35b6003818154811015156103c157fe5b906000526020600020016000915054906101000a900473ffffffffffffffffffffffffffffffffffffffff1681565b6000606080600260008573ffffffffffffffffffffffffffffffffffffffff1673ffffffffffffffffffffffffffffffffffffffff16815260200190815260200160002060000160009054906101000a900473ffffffffffffffffffffffffffffffffffffffff169250600260008573ffffffffffffffffffffffffffffffffffffffff1673ffffffffffffffffffffffffffffffffffffffff1681526020019081526020016000206001018054600181600116156101000203166002900480601f0160208091040260200160405190810160405280929190818152602001828054600181600116156101000203166002900480156105305780601f1061050557610100808354040283529160200191610530565b820191906000526020600020905b81548152906001019060200180831161051357829003601f168201915b50505050509150600260008573ffffffffffffffffffffffffffffffffffffffff1673ffffffffffffffffffffffffffffffffffffffff1681526020019081526020016000206002018054600181600116156101000203166002900480601f01602080910402602001604051908101604052809291908181526020018280546001816001161561010002031660029004801561060d5780601f106105e25761010080835404028352916020019161060d565b820191906000526020600020905b8154815290600101906020018083116105f057829003601f168201915b505050505090509193909250565b6000809054906101000a900473ffffffffffffffffffffffffffffffffffffffff1681565b60015481565b60008060008484610655610b95565b808060200180602001838103835285818151815260200191508051906020019080838360005b8381101561069657808201518184015260208101905061067b565b50505050905090810190601f1680156106c35780820380516001836020036101000a031916815260200191505b50838103825284818151815260200191508051906020019080838360005b838110156106fc5780820151818401526020810190506106e1565b50505050905090810190601f1680156107295780820380516001836020036101000a031916815260200191505b50945050505050604051809103906000f08015801561074c573d6000803e3d6000fd5b5090508073ffffffffffffffffffffffffffffffffffffffff1663a6f9dae1336040518263ffffffff167c0100000000000000000000000000000000000000000000000000000000028152600401808273ffffffffffffffffffffffffffffffffffffffff1673ffffffffffffffffffffffffffffffffffffffff168152602001915050602060405180830381600087803b1580156107ea57600080fd5b505af11580156107fe573d6000803e3d6000fd5b505050506040513d602081101561081457600080fd5b81019080805190602001909291905050505060038190806001815401808255809150509060018203906000526020600020016000909192909190916101000a81548173ffffffffffffffffffffffffffffffffffffffff021916908373ffffffffffffffffffffffffffffffffffffffff1602179055505084600260008373ffffffffffffffffffffffffffffffffffffffff1673ffffffffffffffffffffffffffffffffffffffff16815260200190815260200160002060010190805190602001906108e2929190610ba5565b5083600260008373ffffffffffffffffffffffffffffffffffffffff1673ffffffffffffffffffffffffffffffffffffffff1681526020019081526020016000206002019080519060200190610939929190610ba5565b5033600260008373ffffffffffffffffffffffffffffffffffffffff1673ffffffffffffffffffffffffffffffffffffffff16815260200190815260200160002060000160006101000a81548173ffffffffffffffffffffffffffffffffffffffff021916908373ffffffffffffffffffffffffffffffffffffffff160217905550600380549050600260008373ffffffffffffffffffffffffffffffffffffffff1673ffffffffffffffffffffffffffffffffffffffff16815260200190815260200160002060030181905550806003600160038054905003815481101515610a1f57fe5b9060005260206000200160006101000a81548173ffffffffffffffffffffffffffffffffffffffff021916908373ffffffffffffffffffffffffffffffffffffffff160217905550600160008154809291906001019190505550836040518082805190602001908083835b602083101515610aaf5780518252602082019150602081019050602083039250610a8a565b6001836020036101000a0380198251168184511680821785525050505050509050019150506040518091039020856040518082805190602001908083835b602083101515610b125780518252602082019150602081019050602083039250610aed565b6001836020036101000a03801982511681845116808217855250505050505090500191505060405180910390208273ffffffffffffffffffffffffffffffffffffffff167fb890dcc2a772dc78b85ba6dd9b339427389133db3b779771bb1c0f3586c6b92b60405160405180910390a48060038054905092509250509250929050565b604051610cdb80610c4b83390190565b828054600181600116156101000203166002900490600052602060002090601f016020900481019282601f10610be657805160ff1916838001178555610c14565b82800160010185558215610c14579182015b82811115610c13578251825591602001919060010190610bf8565b5b509050610c219190610c25565b5090565b610c4791905b80821115610c43576000816000905550600101610c2b565b5090565b9056006080604052604051610cdb380380610cdb8339810180604052810190808051820192919060200180518201929190505050336000806101000a81548173ffffffffffffffffffffffffffffffffffffffff021916908373ffffffffffffffffffffffffffffffffffffffff16021790555060046000809054906101000a900473ffffffffffffffffffffffffffffffffffffffff1690806001815401808255809150509060018203906000526020600020016000909192909190916101000a81548173ffffffffffffffffffffffffffffffffffffffff021916908373ffffffffffffffffffffffffffffffffffffffff16021790555050816002908051906020019061010d92919061012c565b50806003908051906020019061012492919061012c565b5050506101d1565b828054600181600116156101000203166002900490600052602060002090601f016020900481019282601f1061016d57805160ff191683800117855561019b565b8280016001018555821561019b579182015b8281111561019a57825182559160200191906001019061017f565b5b5090506101a891906101ac565b5090565b6101ce91905b808211156101ca5760008160009055506001016101b2565b5090565b90565b610afb806101e06000396000f3006080604052600436106100ba576000357c0100000000000000000000000000000000000000000000000000000000900463ffffffff16806308e44f88146100bc57806312065fe01461014c5780634000e4f61461017757806382a79afa146101d2578063835c19f31461023f5780638da5cb5b14610256578063a6f9dae1146102ad578063a79cc09b14610330578063d1ed74ad146103c0578063dabf5f9e1461040d578063dd71e3ac14610438578063f7260d3e14610478575b005b3480156100c857600080fd5b506100d16104cf565b6040518080602001828103825283818151815260200191508051906020019080838360005b838110156101115780820151818401526020810190506100f6565b50505050905090810190601f16801561013e5780820380516001836020036101000a031916815260200191505b509250505060405180910390f35b34801561015857600080fd5b5061016161056d565b6040518082815260200191505060405180910390f35b34801561018357600080fd5b506101b46004803603810190808035600019169060200190929190803560001916906020019092919050505061058c565b60405180826000191660001916815260200191505060405180910390f35b3480156101de57600080fd5b506101fd60048036038101908080359060200190929190505050610616565b604051808273ffffffffffffffffffffffffffffffffffffffff1673ffffffffffffffffffffffffffffffffffffffff16815260200191505060405180910390f35b34801561024b57600080fd5b50610254610654565b005b34801561026257600080fd5b5061026b610727565b604051808273ffffffffffffffffffffffffffffffffffffffff1673ffffffffffffffffffffffffffffffffffffffff16815260200191505060405180910390f35b3480156102b957600080fd5b506102ee600480360381019080803573ffffffffffffffffffffffffffffffffffffffff16906020019092919050505061074c565b604051808273ffffffffffffffffffffffffffffffffffffffff1673ffffffffffffffffffffffffffffffffffffffff16815260200191505060405180910390f35b34801561033c57600080fd5b506103456108ab565b6040518080602001828103825283818151815260200191508051906020019080838360005b8381101561038557808201518184015260208101905061036a565b50505050905090810190601f1680156103b25780820380516001836020036101000a031916815260200191505b509250505060405180910390f35b3480156103cc57600080fd5b506103ef6004803603810190808035600019169060200190929190505050610949565b60405180826000191660001916815260200191505060405180910390f35b34801561041957600080fd5b5061042261096e565b6040518082815260200191505060405180910390f35b610476600480360381019080803573ffffffffffffffffffffffffffffffffffffffff16906020019092919080359060200190929190505050610974565b005b34801561048457600080fd5b5061048d610aa9565b604051808273ffffffffffffffffffffffffffffffffffffffff1673ffffffffffffffffffffffffffffffffffffffff16815260200191505060405180910390f35b60038054600181600116156101000203166002900480601f0160208091040260200160405190810160405280929190818152602001828054600181600116156101000203166002900480156105655780601f1061053a57610100808354040283529160200191610565565b820191906000526020600020905b81548152906001019060200180831161054857829003601f168201915b505050505081565b60003073ffffffffffffffffffffffffffffffffffffffff1631905090565b60008060009054906101000a900473ffffffffffffffffffffffffffffffffffffffff1673ffffffffffffffffffffffffffffffffffffffff163373ffffffffffffffffffffffffffffffffffffffff161415156105e957600080fd5b81600760008560001916600019168152602001908152602001600020816000191690555081905092915050565b60048181548110151561062557fe5b906000526020600020016000915054906101000a900473ffffffffffffffffffffffffffffffffffffffff1681565b6000600660003373ffffffffffffffffffffffffffffffffffffffff1673ffffffffffffffffffffffffffffffffffffffff1681526020019081526020016000205490506000600660003373ffffffffffffffffffffffffffffffffffffffff1673ffffffffffffffffffffffffffffffffffffffff168152602001908152602001600020819055503373ffffffffffffffffffffffffffffffffffffffff166108fc829081150290604051600060405180830381858888f19350505050158015610723573d6000803e3d6000fd5b5050565b6000809054906101000a900473ffffffffffffffffffffffffffffffffffffffff1681565b60008060009054906101000a900473ffffffffffffffffffffffffffffffffffffffff1673ffffffffffffffffffffffffffffffffffffffff163373ffffffffffffffffffffffffffffffffffffffff161415156107a957600080fd5b816000806101000a81548173ffffffffffffffffffffffffffffffffffffffff021916908373ffffffffffffffffffffffffffffffffffffffff16021790555060046000809054906101000a900473ffffffffffffffffffffffffffffffffffffffff1690806001815401808255809150509060018203906000526020600020016000909192909190916101000a81548173ffffffffffffffffffffffffffffffffffffffff021916908373ffffffffffffffffffffffffffffffffffffffff160217905550506005600081548092919060010191905055506000809054906101000a900473ffffffffffffffffffffffffffffffffffffffff169050919050565b60028054600181600116156101000203166002900480601f0160208091040260200160405190810160405280929190818152602001828054600181600116156101000203166002900480156109415780601f1061091657610100808354040283529160200191610941565b820191906000526020600020905b81548152906001019060200180831161092457829003601f168201915b505050505081565b6000600760008360001916600019168152602001908152602001600020549050919050565b60055481565b6000809054906101000a900473ffffffffffffffffffffffffffffffffffffffff1673ffffffffffffffffffffffffffffffffffffffff163373ffffffffffffffffffffffffffffffffffffffff161415156109cf57600080fd5b81600160006101000a81548173ffffffffffffffffffffffffffffffffffffffff021916908373ffffffffffffffffffffffffffffffffffffffff1602179055503073ffffffffffffffffffffffffffffffffffffffff16318111151515610a3657600080fd5b8060066000600160009054906101000a900473ffffffffffffffffffffffffffffffffffffffff1673ffffffffffffffffffffffffffffffffffffffff1673ffffffffffffffffffffffffffffffffffffffff168152602001908152602001600020600082825401925050819055505050565b600160009054906101000a900473ffffffffffffffffffffffffffffffffffffffff16815600a165627a7a723058207dc934f2a3ddec0e5cc016a93c9818c91b5dfd83de01620d6d92cd464e16c9240029a165627a7a72305820631b847c060b38b7a6e31e6f5fe3918eb91a8a655fffa69a1342472418fa792e0029",
  "source": "pragma solidity ^0.4.22;\n\ncontract SpatialUnit  \n{\n    \n    address public owner;\n    address public receiver;\n    string public alias;\n    string public geohash;\n    address[] public ownerhistory;\n\tuint public ownertransfercount;\n    \n    mapping(address => uint) paymentpool;\n\tmapping(bytes32 => bytes32) keyvaluestore;\n    \n    function SpatialUnit(string _alias, string _geohash)\n    public\n    payable \n    {\n        owner = msg.sender;\n\t\townerhistory.push(owner);\n        alias = _alias;\n        geohash = _geohash;\n    }\n    \n    function () \n    public \n    payable \n    {\n        // fallback function\n    }\n    \n    function getBalance() \n    public \n    view \n    returns (uint)\n    {\n        return address(this).balance;\n    }\n\n\tfunction store(bytes32 _key, bytes32 _value)\n\tpublic\n\treturns (bytes32 _stored_val)\n\t{\n\t\trequire(msg.sender == owner);\n\t\tkeyvaluestore[_key] = _value;\n\t\treturn _value;\n\t}\n\n\tfunction retrieve(bytes32 _key)\n\tpublic\n\tview \n\treturns (bytes32 _stored_val)\n\t{\n\t\treturn keyvaluestore[_key];\n\t}\n    \n\tfunction changeOwner(address _newOwner)\n\tpublic \n\treturns (address)\n\t{\n\t\trequire(msg.sender == owner);\n\t\towner = _newOwner;\n\t\townerhistory.push(owner);\n\t\townertransfercount++;\n\t\treturn(address(owner));\n\t}\n\n    function execPayment(address _receiver, uint _amount) \n    public \n    payable \n    {\n\t\trequire(msg.sender == owner);\n        receiver = _receiver;\n        require(_amount <= address(this).balance);\n        paymentpool[receiver] += _amount;\n    }\n    \n    function receivePayment() \n    external \n    {\n        uint pmnt = paymentpool[msg.sender]; \n        paymentpool[msg.sender] = 0; \n        msg.sender.transfer(pmnt); \n    }\n}\n\ncontract SpatialUnitRegistry\n{\n    address public owner;\n    uint public numSpUnits;\n    mapping(address => Unit) records;\n    address[] public keys;\n    \n    // events\n    event SpatialUnitAdded(address indexed owner, string indexed _alias, string indexed _geoHash);\n    \n    // structs    \n    struct Unit \n    {\n        address owner;\n        string alias;\n        string geoHash; \n        uint keysIndex;\n    }\n    \n    function SpatialUnitRegistry()\n    public\n    {\n        owner = msg.sender;\n    }\n    \n    function addSpatialUnit(string _alias, string _geoHash) \n    public\n\treturns (address _newSpatialunit, uint _keyslength)\n    {\n        SpatialUnit newSpatialUnit = new SpatialUnit(_alias, _geoHash);\n        newSpatialUnit.changeOwner(msg.sender);\n        keys.push(newSpatialUnit);\n        records[newSpatialUnit].alias = _alias;\n        records[newSpatialUnit].geoHash = _geoHash;\n        records[newSpatialUnit].owner = msg.sender;\n        records[newSpatialUnit].keysIndex = keys.length;\n        keys[keys.length - 1] = address(newSpatialUnit);\n        numSpUnits++;\n        emit SpatialUnitAdded(newSpatialUnit, _alias, _geoHash);\n\t\treturn(address(newSpatialUnit), keys.length);\n    }\n    \n    function getSpatialUnit(address addr) \n    public\n    view\n    returns (address theowner, string alias, string geoHash) \n    {\n        theowner = records[addr].owner;\n        alias = records[addr].alias;\n        geoHash = records[addr].geoHash;\n    }\n    \n} \n",
  "sourcePath": "/home/wil/Documents/projects/real-estate-standards/contracts/SpatialUnitRegistry.sol",
  "compiler": {
    "name": "solc",
    "version": "0.4.24+commit.e67f0147.Emscripten.clang"
  },
  "schemaVersion": "2.0.0",
  "updatedAt": "2018-05-29T15:14:08.709Z"
}