{
  "contractName": "SpatialUnit",
  "abi": [
    {
      "constant": true,
      "inputs": [],
      "name": "geohash",
      "outputs": [
        {
          "name": "",
          "type": "string"
        }
      ],
      "payable": false,
      "stateMutability": "view",
      "type": "function"
    },
    {
      "constant": true,
      "inputs": [
        {
          "name": "",
          "type": "uint256"
        }
      ],
      "name": "ownerhistory",
      "outputs": [
        {
          "name": "",
          "type": "address"
        }
      ],
      "payable": false,
      "stateMutability": "view",
      "type": "function"
    },
    {
      "constant": true,
      "inputs": [],
      "name": "owner",
      "outputs": [
        {
          "name": "",
          "type": "address"
        }
      ],
      "payable": false,
      "stateMutability": "view",
      "type": "function"
    },
    {
      "constant": true,
      "inputs": [],
      "name": "alias",
      "outputs": [
        {
          "name": "",
          "type": "string"
        }
      ],
      "payable": false,
      "stateMutability": "view",
      "type": "function"
    },
    {
      "constant": true,
      "inputs": [],
      "name": "ownertransfercount",
      "outputs": [
        {
          "name": "",
          "type": "uint256"
        }
      ],
      "payable": false,
      "stateMutability": "view",
      "type": "function"
    },
    {
      "constant": true,
      "inputs": [],
      "name": "receiver",
      "outputs": [
        {
          "name": "",
          "type": "address"
        }
      ],
      "payable": false,
      "stateMutability": "view",
      "type": "function"
    },
    {
      "inputs": [
        {
          "name": "_alias",
          "type": "string"
        },
        {
          "name": "_geohash",
          "type": "string"
        }
      ],
      "payable": true,
      "stateMutability": "payable",
      "type": "constructor"
    },
    {
      "payable": true,
      "stateMutability": "payable",
      "type": "fallback"
    },
    {
      "constant": true,
      "inputs": [],
      "name": "getBalance",
      "outputs": [
        {
          "name": "",
          "type": "uint256"
        }
      ],
      "payable": false,
      "stateMutability": "view",
      "type": "function"
    },
    {
      "constant": false,
      "inputs": [
        {
          "name": "_key",
          "type": "bytes32"
        },
        {
          "name": "_value",
          "type": "bytes32"
        }
      ],
      "name": "store",
      "outputs": [
        {
          "name": "_stored_val",
          "type": "bytes32"
        }
      ],
      "payable": false,
      "stateMutability": "nonpayable",
      "type": "function"
    },
    {
      "constant": true,
      "inputs": [
        {
          "name": "_key",
          "type": "bytes32"
        }
      ],
      "name": "retrieve",
      "outputs": [
        {
          "name": "_stored_val",
          "type": "bytes32"
        }
      ],
      "payable": false,
      "stateMutability": "view",
      "type": "function"
    },
    {
      "constant": false,
      "inputs": [
        {
          "name": "_newOwner",
          "type": "address"
        }
      ],
      "name": "changeOwner",
      "outputs": [
        {
          "name": "",
          "type": "address"
        }
      ],
      "payable": false,
      "stateMutability": "nonpayable",
      "type": "function"
    },
    {
      "constant": false,
      "inputs": [
        {
          "name": "_receiver",
          "type": "address"
        },
        {
          "name": "_amount",
          "type": "uint256"
        }
      ],
      "name": "execPayment",
      "outputs": [],
      "payable": true,
      "stateMutability": "payable",
      "type": "function"
    },
    {
      "constant": false,
      "inputs": [],
      "name": "receivePayment",
      "outputs": [],
      "payable": false,
      "stateMutability": "nonpayable",
      "type": "function"
    }
  ],
  "bytecode": "0x6080604052604051610cdb380380610cdb8339810180604052810190808051820192919060200180518201929190505050336000806101000a81548173ffffffffffffffffffffffffffffffffffffffff021916908373ffffffffffffffffffffffffffffffffffffffff16021790555060046000809054906101000a900473ffffffffffffffffffffffffffffffffffffffff1690806001815401808255809150509060018203906000526020600020016000909192909190916101000a81548173ffffffffffffffffffffffffffffffffffffffff021916908373ffffffffffffffffffffffffffffffffffffffff16021790555050816002908051906020019061010d92919061012c565b50806003908051906020019061012492919061012c565b5050506101d1565b828054600181600116156101000203166002900490600052602060002090601f016020900481019282601f1061016d57805160ff191683800117855561019b565b8280016001018555821561019b579182015b8281111561019a57825182559160200191906001019061017f565b5b5090506101a891906101ac565b5090565b6101ce91905b808211156101ca5760008160009055506001016101b2565b5090565b90565b610afb806101e06000396000f3006080604052600436106100ba576000357c0100000000000000000000000000000000000000000000000000000000900463ffffffff16806308e44f88146100bc57806312065fe01461014c5780634000e4f61461017757806382a79afa146101d2578063835c19f31461023f5780638da5cb5b14610256578063a6f9dae1146102ad578063a79cc09b14610330578063d1ed74ad146103c0578063dabf5f9e1461040d578063dd71e3ac14610438578063f7260d3e14610478575b005b3480156100c857600080fd5b506100d16104cf565b6040518080602001828103825283818151815260200191508051906020019080838360005b838110156101115780820151818401526020810190506100f6565b50505050905090810190601f16801561013e5780820380516001836020036101000a031916815260200191505b509250505060405180910390f35b34801561015857600080fd5b5061016161056d565b6040518082815260200191505060405180910390f35b34801561018357600080fd5b506101b46004803603810190808035600019169060200190929190803560001916906020019092919050505061058c565b60405180826000191660001916815260200191505060405180910390f35b3480156101de57600080fd5b506101fd60048036038101908080359060200190929190505050610616565b604051808273ffffffffffffffffffffffffffffffffffffffff1673ffffffffffffffffffffffffffffffffffffffff16815260200191505060405180910390f35b34801561024b57600080fd5b50610254610654565b005b34801561026257600080fd5b5061026b610727565b604051808273ffffffffffffffffffffffffffffffffffffffff1673ffffffffffffffffffffffffffffffffffffffff16815260200191505060405180910390f35b3480156102b957600080fd5b506102ee600480360381019080803573ffffffffffffffffffffffffffffffffffffffff16906020019092919050505061074c565b604051808273ffffffffffffffffffffffffffffffffffffffff1673ffffffffffffffffffffffffffffffffffffffff16815260200191505060405180910390f35b34801561033c57600080fd5b506103456108ab565b6040518080602001828103825283818151815260200191508051906020019080838360005b8381101561038557808201518184015260208101905061036a565b50505050905090810190601f1680156103b25780820380516001836020036101000a031916815260200191505b509250505060405180910390f35b3480156103cc57600080fd5b506103ef6004803603810190808035600019169060200190929190505050610949565b60405180826000191660001916815260200191505060405180910390f35b34801561041957600080fd5b5061042261096e565b6040518082815260200191505060405180910390f35b610476600480360381019080803573ffffffffffffffffffffffffffffffffffffffff16906020019092919080359060200190929190505050610974565b005b34801561048457600080fd5b5061048d610aa9565b604051808273ffffffffffffffffffffffffffffffffffffffff1673ffffffffffffffffffffffffffffffffffffffff16815260200191505060405180910390f35b60038054600181600116156101000203166002900480601f0160208091040260200160405190810160405280929190818152602001828054600181600116156101000203166002900480156105655780601f1061053a57610100808354040283529160200191610565565b820191906000526020600020905b81548152906001019060200180831161054857829003601f168201915b505050505081565b60003073ffffffffffffffffffffffffffffffffffffffff1631905090565b60008060009054906101000a900473ffffffffffffffffffffffffffffffffffffffff1673ffffffffffffffffffffffffffffffffffffffff163373ffffffffffffffffffffffffffffffffffffffff161415156105e957600080fd5b81600760008560001916600019168152602001908152602001600020816000191690555081905092915050565b60048181548110151561062557fe5b906000526020600020016000915054906101000a900473ffffffffffffffffffffffffffffffffffffffff1681565b6000600660003373ffffffffffffffffffffffffffffffffffffffff1673ffffffffffffffffffffffffffffffffffffffff1681526020019081526020016000205490506000600660003373ffffffffffffffffffffffffffffffffffffffff1673ffffffffffffffffffffffffffffffffffffffff168152602001908152602001600020819055503373ffffffffffffffffffffffffffffffffffffffff166108fc829081150290604051600060405180830381858888f19350505050158015610723573d6000803e3d6000fd5b5050565b6000809054906101000a900473ffffffffffffffffffffffffffffffffffffffff1681565b60008060009054906101000a900473ffffffffffffffffffffffffffffffffffffffff1673ffffffffffffffffffffffffffffffffffffffff163373ffffffffffffffffffffffffffffffffffffffff161415156107a957600080fd5b816000806101000a81548173ffffffffffffffffffffffffffffffffffffffff021916908373ffffffffffffffffffffffffffffffffffffffff16021790555060046000809054906101000a900473ffffffffffffffffffffffffffffffffffffffff1690806001815401808255809150509060018203906000526020600020016000909192909190916101000a81548173ffffffffffffffffffffffffffffffffffffffff021916908373ffffffffffffffffffffffffffffffffffffffff160217905550506005600081548092919060010191905055506000809054906101000a900473ffffffffffffffffffffffffffffffffffffffff169050919050565b60028054600181600116156101000203166002900480601f0160208091040260200160405190810160405280929190818152602001828054600181600116156101000203166002900480156109415780601f1061091657610100808354040283529160200191610941565b820191906000526020600020905b81548152906001019060200180831161092457829003601f168201915b505050505081565b6000600760008360001916600019168152602001908152602001600020549050919050565b60055481565b6000809054906101000a900473ffffffffffffffffffffffffffffffffffffffff1673ffffffffffffffffffffffffffffffffffffffff163373ffffffffffffffffffffffffffffffffffffffff161415156109cf57600080fd5b81600160006101000a81548173ffffffffffffffffffffffffffffffffffffffff021916908373ffffffffffffffffffffffffffffffffffffffff1602179055503073ffffffffffffffffffffffffffffffffffffffff16318111151515610a3657600080fd5b8060066000600160009054906101000a900473ffffffffffffffffffffffffffffffffffffffff1673ffffffffffffffffffffffffffffffffffffffff1673ffffffffffffffffffffffffffffffffffffffff168152602001908152602001600020600082825401925050819055505050565b600160009054906101000a900473ffffffffffffffffffffffffffffffffffffffff16815600a165627a7a723058207dc934f2a3ddec0e5cc016a93c9818c91b5dfd83de01620d6d92cd464e16c9240029",
  "source": "pragma solidity ^0.4.22;\n\ncontract SpatialUnit  \n{\n    \n    address public owner;\n    address public receiver;\n    string public alias;\n    string public geohash;\n    address[] public ownerhistory;\n\tuint public ownertransfercount;\n    \n    mapping(address => uint) paymentpool;\n\tmapping(bytes32 => bytes32) keyvaluestore;\n    \n    function SpatialUnit(string _alias, string _geohash)\n    public\n    payable \n    {\n        owner = msg.sender;\n\t\townerhistory.push(owner);\n        alias = _alias;\n        geohash = _geohash;\n    }\n    \n    function () \n    public \n    payable \n    {\n        // fallback function\n    }\n    \n    function getBalance() \n    public \n    view \n    returns (uint)\n    {\n        return address(this).balance;\n    }\n\n\tfunction store(bytes32 _key, bytes32 _value)\n\tpublic\n\treturns (bytes32 _stored_val)\n\t{\n\t\trequire(msg.sender == owner);\n\t\tkeyvaluestore[_key] = _value;\n\t\treturn _value;\n\t}\n\n\tfunction retrieve(bytes32 _key)\n\tpublic\n\tview \n\treturns (bytes32 _stored_val)\n\t{\n\t\treturn keyvaluestore[_key];\n\t}\n    \n\tfunction changeOwner(address _newOwner)\n\tpublic \n\treturns (address)\n\t{\n\t\trequire(msg.sender == owner);\n\t\towner = _newOwner;\n\t\townerhistory.push(owner);\n\t\townertransfercount++;\n\t\treturn(address(owner));\n\t}\n\n    function execPayment(address _receiver, uint _amount) \n    public \n    payable \n    {\n\t\trequire(msg.sender == owner);\n        receiver = _receiver;\n        require(_amount <= address(this).balance);\n        paymentpool[receiver] += _amount;\n    }\n    \n    function receivePayment() \n    external \n    {\n        uint pmnt = paymentpool[msg.sender]; \n        paymentpool[msg.sender] = 0; \n        msg.sender.transfer(pmnt); \n    }\n}\n\ncontract SpatialUnitRegistry\n{\n    address public owner;\n    uint public numSpUnits;\n    mapping(address => Unit) records;\n    address[] public keys;\n    \n    // events\n    event SpatialUnitAdded(address indexed owner, string indexed _alias, string indexed _geoHash);\n    \n    // structs    \n    struct Unit \n    {\n        address owner;\n        string alias;\n        string geoHash; \n        uint keysIndex;\n    }\n    \n    function SpatialUnitRegistry()\n    public\n    {\n        owner = msg.sender;\n    }\n    \n    function addSpatialUnit(string _alias, string _geoHash) \n    public\n\treturns (address _newSpatialunit, uint _keyslength)\n    {\n        SpatialUnit newSpatialUnit = new SpatialUnit(_alias, _geoHash);\n        newSpatialUnit.changeOwner(msg.sender);\n        keys.push(newSpatialUnit);\n        records[newSpatialUnit].alias = _alias;\n        records[newSpatialUnit].geoHash = _geoHash;\n        records[newSpatialUnit].owner = msg.sender;\n        records[newSpatialUnit].keysIndex = keys.length;\n        keys[keys.length - 1] = address(newSpatialUnit);\n        numSpUnits++;\n        emit SpatialUnitAdded(newSpatialUnit, _alias, _geoHash);\n\t\treturn(address(newSpatialUnit), keys.length);\n    }\n    \n    function getSpatialUnit(address addr) \n    public\n    view\n    returns (address theowner, string alias, string geoHash) \n    {\n        theowner = records[addr].owner;\n        alias = records[addr].alias;\n        geoHash = records[addr].geoHash;\n    }\n    \n} \n",
  "sourcePath": "/home/wil/Documents/projects/real-estate-standards/contracts/SpatialUnitRegistry.sol",
  "compiler": {
    "name": "solc",
    "version": "0.4.24+commit.e67f0147.Emscripten.clang"
  },
  "schemaVersion": "2.0.0",
  "updatedAt": "2018-05-29T15:14:08.698Z"
}