{
  "contractName": "SpatialUnitRegistry",
  "abi": [
    {
      "constant": true,
      "inputs": [
        {
          "name": "",
          "type": "uint256"
        }
      ],
      "name": "keys",
      "outputs": [
        {
          "name": "",
          "type": "address"
        }
      ],
      "payable": false,
      "stateMutability": "view",
      "type": "function"
    },
    {
      "constant": true,
      "inputs": [],
      "name": "owner",
      "outputs": [
        {
          "name": "",
          "type": "address"
        }
      ],
      "payable": false,
      "stateMutability": "view",
      "type": "function"
    },
    {
      "constant": true,
      "inputs": [],
      "name": "numSpUnits",
      "outputs": [
        {
          "name": "",
          "type": "uint256"
        }
      ],
      "payable": false,
      "stateMutability": "view",
      "type": "function"
    },
    {
      "inputs": [],
      "payable": false,
      "stateMutability": "nonpayable",
      "type": "constructor"
    },
    {
      "anonymous": false,
      "inputs": [
        {
          "indexed": false,
          "name": "owner",
          "type": "address"
        },
        {
          "indexed": false,
          "name": "_alias",
          "type": "string"
        },
        {
          "indexed": false,
          "name": "_geoHash",
          "type": "string"
        }
      ],
      "name": "SpatialUnitAdded",
      "type": "event"
    },
    {
      "constant": false,
      "inputs": [
        {
          "name": "_alias",
          "type": "string"
        },
        {
          "name": "_geoHash",
          "type": "string"
        }
      ],
      "name": "addSpatialUnit",
      "outputs": [],
      "payable": false,
      "stateMutability": "nonpayable",
      "type": "function"
    },
    {
      "constant": true,
      "inputs": [
        {
          "name": "addr",
          "type": "address"
        }
      ],
      "name": "getSpatialUnit",
      "outputs": [
        {
          "name": "theowner",
          "type": "address"
        },
        {
          "name": "alias",
          "type": "string"
        },
        {
          "name": "geoHash",
          "type": "string"
        }
      ],
      "payable": false,
      "stateMutability": "view",
      "type": "function"
    }
  ],
  "bytecode": "0x608060405234801561001057600080fd5b50336000806101000a81548173ffffffffffffffffffffffffffffffffffffffff021916908373ffffffffffffffffffffffffffffffffffffffff160217905550611383806100606000396000f30060806040526004361061006d576000357c0100000000000000000000000000000000000000000000000000000000900463ffffffff1680630cb6aaf11461007257806324dcee68146100df5780638da5cb5b1461023a57806392e78d1814610291578063f94b0263146102bc575b600080fd5b34801561007e57600080fd5b5061009d6004803603810190808035906020019092919050505061036b565b604051808273ffffffffffffffffffffffffffffffffffffffff1673ffffffffffffffffffffffffffffffffffffffff16815260200191505060405180910390f35b3480156100eb57600080fd5b50610120600480360381019080803573ffffffffffffffffffffffffffffffffffffffff1690602001909291905050506103a9565b604051808473ffffffffffffffffffffffffffffffffffffffff1673ffffffffffffffffffffffffffffffffffffffff1681526020018060200180602001838103835285818151815260200191508051906020019080838360005b8381101561019657808201518184015260208101905061017b565b50505050905090810190601f1680156101c35780820380516001836020036101000a031916815260200191505b50838103825284818151815260200191508051906020019080838360005b838110156101fc5780820151818401526020810190506101e1565b50505050905090810190601f1680156102295780820380516001836020036101000a031916815260200191505b509550505050505060405180910390f35b34801561024657600080fd5b5061024f6105d4565b604051808273ffffffffffffffffffffffffffffffffffffffff1673ffffffffffffffffffffffffffffffffffffffff16815260200191505060405180910390f35b34801561029d57600080fd5b506102a66105f9565b6040518082815260200191505060405180910390f35b3480156102c857600080fd5b50610369600480360381019080803590602001908201803590602001908080601f0160208091040260200160405190810160405280939291908181526020018383808284378201915050505050509192919290803590602001908201803590602001908080601f01602080910402602001604051908101604052809392919081815260200183838082843782019150505050505091929192905050506105ff565b005b60038181548110151561037a57fe5b906000526020600020016000915054906101000a900473ffffffffffffffffffffffffffffffffffffffff1681565b6000606080600260008573ffffffffffffffffffffffffffffffffffffffff1673ffffffffffffffffffffffffffffffffffffffff16815260200190815260200160002060000160009054906101000a900473ffffffffffffffffffffffffffffffffffffffff169250600260008573ffffffffffffffffffffffffffffffffffffffff1673ffffffffffffffffffffffffffffffffffffffff1681526020019081526020016000206001018054600181600116156101000203166002900480601f0160208091040260200160405190810160405280929190818152602001828054600181600116156101000203166002900480156104e95780601f106104be576101008083540402835291602001916104e9565b820191906000526020600020905b8154815290600101906020018083116104cc57829003601f168201915b50505050509150600260008573ffffffffffffffffffffffffffffffffffffffff1673ffffffffffffffffffffffffffffffffffffffff1681526020019081526020016000206002018054600181600116156101000203166002900480601f0160208091040260200160405190810160405280929190818152602001828054600181600116156101000203166002900480156105c65780601f1061059b576101008083540402835291602001916105c6565b820191906000526020600020905b8154815290600101906020018083116105a957829003601f168201915b505050505090509193909250565b6000809054906101000a900473ffffffffffffffffffffffffffffffffffffffff1681565b60015481565b6000828261060b610a9a565b808060200180602001838103835285818151815260200191508051906020019080838360005b8381101561064c578082015181840152602081019050610631565b50505050905090810190601f1680156106795780820380516001836020036101000a031916815260200191505b50838103825284818151815260200191508051906020019080838360005b838110156106b2578082015181840152602081019050610697565b50505050905090810190601f1680156106df5780820380516001836020036101000a031916815260200191505b50945050505050604051809103906000f080158015610702573d6000803e3d6000fd5b50905060038190806001815401808255809150509060018203906000526020600020016000909192909190916101000a81548173ffffffffffffffffffffffffffffffffffffffff021916908373ffffffffffffffffffffffffffffffffffffffff1602179055505082600260008373ffffffffffffffffffffffffffffffffffffffff1673ffffffffffffffffffffffffffffffffffffffff16815260200190815260200160002060010190805190602001906107c1929190610aaa565b5081600260008373ffffffffffffffffffffffffffffffffffffffff1673ffffffffffffffffffffffffffffffffffffffff1681526020019081526020016000206002019080519060200190610818929190610aaa565b5033600260008373ffffffffffffffffffffffffffffffffffffffff1673ffffffffffffffffffffffffffffffffffffffff16815260200190815260200160002060000160006101000a81548173ffffffffffffffffffffffffffffffffffffffff021916908373ffffffffffffffffffffffffffffffffffffffff160217905550600380549050600260008373ffffffffffffffffffffffffffffffffffffffff1673ffffffffffffffffffffffffffffffffffffffff168152602001908152602001600020600301819055508060036001600380549050038154811015156108fe57fe5b9060005260206000200160006101000a81548173ffffffffffffffffffffffffffffffffffffffff021916908373ffffffffffffffffffffffffffffffffffffffff1602179055506001600081548092919060010191905055507fb890dcc2a772dc78b85ba6dd9b339427389133db3b779771bb1c0f3586c6b92b818484604051808473ffffffffffffffffffffffffffffffffffffffff1673ffffffffffffffffffffffffffffffffffffffff1681526020018060200180602001838103835285818151815260200191508051906020019080838360005b838110156109f25780820151818401526020810190506109d7565b50505050905090810190601f168015610a1f5780820380516001836020036101000a031916815260200191505b50838103825284818151815260200191508051906020019080838360005b83811015610a58578082015181840152602081019050610a3d565b50505050905090810190601f168015610a855780820380516001836020036101000a031916815260200191505b509550505050505060405180910390a1505050565b60405161080880610b5083390190565b828054600181600116156101000203166002900490600052602060002090601f016020900481019282601f10610aeb57805160ff1916838001178555610b19565b82800160010185558215610b19579182015b82811115610b18578251825591602001919060010190610afd565b5b509050610b269190610b2a565b5090565b610b4c91905b80821115610b48576000816000905550600101610b30565b5090565b90560060806040526040516108083803806108088339810180604052810190808051820192919060200180518201929190505050336000806101000a81548173ffffffffffffffffffffffffffffffffffffffff021916908373ffffffffffffffffffffffffffffffffffffffff16021790555081600290805190602001906100869291906100a5565b50806003908051906020019061009d9291906100a5565b50505061014a565b828054600181600116156101000203166002900490600052602060002090601f016020900481019282601f106100e657805160ff1916838001178555610114565b82800160010185558215610114579182015b828111156101135782518255916020019190600101906100f8565b5b5090506101219190610125565b5090565b61014791905b8082111561014357600081600090555060010161012b565b5090565b90565b6106af806101596000396000f300608060405260043610610083576000357c0100000000000000000000000000000000000000000000000000000000900463ffffffff16806308e44f881461008557806312065fe014610115578063835c19f3146101405780638da5cb5b14610157578063a79cc09b146101ae578063dd71e3ac1461023e578063f7260d3e1461027e575b005b34801561009157600080fd5b5061009a6102d5565b6040518080602001828103825283818151815260200191508051906020019080838360005b838110156100da5780820151818401526020810190506100bf565b50505050905090810190601f1680156101075780820380516001836020036101000a031916815260200191505b509250505060405180910390f35b34801561012157600080fd5b5061012a610373565b6040518082815260200191505060405180910390f35b34801561014c57600080fd5b50610155610392565b005b34801561016357600080fd5b5061016c610465565b604051808273ffffffffffffffffffffffffffffffffffffffff1673ffffffffffffffffffffffffffffffffffffffff16815260200191505060405180910390f35b3480156101ba57600080fd5b506101c361048a565b6040518080602001828103825283818151815260200191508051906020019080838360005b838110156102035780820151818401526020810190506101e8565b50505050905090810190601f1680156102305780820380516001836020036101000a031916815260200191505b509250505060405180910390f35b61027c600480360381019080803573ffffffffffffffffffffffffffffffffffffffff16906020019092919080359060200190929190505050610528565b005b34801561028a57600080fd5b5061029361065d565b604051808273ffffffffffffffffffffffffffffffffffffffff1673ffffffffffffffffffffffffffffffffffffffff16815260200191505060405180910390f35b60038054600181600116156101000203166002900480601f01602080910402602001604051908101604052809291908181526020018280546001816001161561010002031660029004801561036b5780601f106103405761010080835404028352916020019161036b565b820191906000526020600020905b81548152906001019060200180831161034e57829003601f168201915b505050505081565b60003073ffffffffffffffffffffffffffffffffffffffff1631905090565b6000600460003373ffffffffffffffffffffffffffffffffffffffff1673ffffffffffffffffffffffffffffffffffffffff1681526020019081526020016000205490506000600460003373ffffffffffffffffffffffffffffffffffffffff1673ffffffffffffffffffffffffffffffffffffffff168152602001908152602001600020819055503373ffffffffffffffffffffffffffffffffffffffff166108fc829081150290604051600060405180830381858888f19350505050158015610461573d6000803e3d6000fd5b5050565b6000809054906101000a900473ffffffffffffffffffffffffffffffffffffffff1681565b60028054600181600116156101000203166002900480601f0160208091040260200160405190810160405280929190818152602001828054600181600116156101000203166002900480156105205780601f106104f557610100808354040283529160200191610520565b820191906000526020600020905b81548152906001019060200180831161050357829003601f168201915b505050505081565b6000809054906101000a900473ffffffffffffffffffffffffffffffffffffffff1673ffffffffffffffffffffffffffffffffffffffff163373ffffffffffffffffffffffffffffffffffffffff1614151561058357600080fd5b81600160006101000a81548173ffffffffffffffffffffffffffffffffffffffff021916908373ffffffffffffffffffffffffffffffffffffffff1602179055503073ffffffffffffffffffffffffffffffffffffffff163181111515156105ea57600080fd5b8060046000600160009054906101000a900473ffffffffffffffffffffffffffffffffffffffff1673ffffffffffffffffffffffffffffffffffffffff1673ffffffffffffffffffffffffffffffffffffffff168152602001908152602001600020600082825401925050819055505050565b600160009054906101000a900473ffffffffffffffffffffffffffffffffffffffff16815600a165627a7a723058201cb3eff4a2bdbaafbb2823d5417f523fb7f2cc5b547a29608df23bb39e77350d0029a165627a7a723058201f5efce57d101be1bd69001c226ad8439ad664faa670527d534ba10579a349a60029",
  "source": "pragma solidity 0.4.23;\n\ncontract SpatialUnit\n{\n    \n    address public owner;\n    address public receiver;\n    string public alias;\n    string public geohash;\n    \n    mapping(address => uint) paymentpool;\n    \n    function SpatialUnit(string _alias, string _geohash)\n    public\n    payable \n    {\n        owner = msg.sender;\n        alias = _alias;\n        geohash = _geohash;\n    }\n    \n    function () \n    public \n    payable \n    {\n        // fallback function\n    }\n    \n    function getBalance() \n    public \n    view\n    returns (uint)\n    {\n        return address(this).balance;\n    }\n    \n    function execPayment(address _receiver, uint _amount) \n    public \n    payable \n    {\n\t\trequire(msg.sender == owner);\n\t\t// it is generally advisable to use pull OVER push for external calls (as per ConsenSys Security Best Practices repo)\n        // _to = address to receive payment from SpatialUnit\n        // _amount = amount of ether to send to ExecuteReceiver\n        receiver = _receiver;\n        require(_amount <= address(this).balance);\n        paymentpool[receiver] += _amount;\n    }\n    \n    function receivePayment() \n    external \n    {\n        uint pmnt = paymentpool[msg.sender]; \n        paymentpool[msg.sender] = 0; \n        msg.sender.transfer(pmnt); \n    }\n}\n\ncontract SpatialUnitRegistry\n{\n    address public owner;\n    uint public numSpUnits;\n    mapping(address => Unit) records;\n    address[] public keys;\n    \n    // events\n    event SpatialUnitAdded(address owner, string _alias, string _geoHash);\n    \n    // structs    \n    struct Unit \n    {\n        address owner;\n        string alias;\n        string geoHash; \n        uint keysIndex;\n    }\n    \n    function SpatialUnitRegistry()\n    public\n    {\n        owner = msg.sender;\n    }\n    \n    function addSpatialUnit(string _alias, string _geoHash) \n    public\n    {\n        address newSpatialUnit = new SpatialUnit(_alias, _geoHash);\n        keys.push(newSpatialUnit);\n        records[newSpatialUnit].alias = _alias;\n        records[newSpatialUnit].geoHash = _geoHash;\n        records[newSpatialUnit].owner = msg.sender;\n        records[newSpatialUnit].keysIndex = keys.length;\n        keys[keys.length - 1] = address(newSpatialUnit);\n        numSpUnits++;\n        emit SpatialUnitAdded(newSpatialUnit, _alias, _geoHash);\n    }\n    \n    function getSpatialUnit(address addr) \n    public\n    view\n    returns (address theowner, string alias, string geoHash) \n    {\n        theowner = records[addr].owner;\n        alias = records[addr].alias;\n        geoHash = records[addr].geoHash;\n    }\n    \n} \n",
  "sourcePath": "/home/wil/Documents/projects/tara/contracts/SpatialUnitRegistry.sol",
  "compiler": {
    "name": "solc",
    "version": "0.4.23+commit.124ca40d.Emscripten.clang"
  },
  "schemaVersion": "1.0.1",
  "updatedAt": "2018-04-25T09:08:29.879Z"
}